:0400000009EF01F013
:100008005D82FACF18F0FBCF19F0E9CF1AF0EACFEA
:100018001BF0E1CF1CF0E2CF1DF0D9CF1EF0DACFF4
:100028001FF0F3CF20F0F4CF21F0F6CF22F0F7CF76
:1000380023F0F8CF24F0F5CF25F05DC026F05EC0A0
:1000480027F05FC028F060C029F0F0B6F0A0ABD070
:10005800F090620E8AEC27F02B6E2BA011D0439003
:1000680043BC439C000E0101526F000E516F43A226
:1000780007D0480E8AEC27F02A6E2AB043844392B0
:100088002BA68AD02D68000E2E6E010E2E6401D08C
:1000980010D02E50500D000EF324D96E020EF4200D
:1000A800DA6EDF50D8A403D02EC02DF002D02E2A4D
:1000B800ECD7020E2D606BD0040E036E730EB3ECFA
:1000C80027F02D50500D000EF324D96E020EF420A7
:1000D800DA6E030E046E000E036E46EC26F0020F75
:1000E800DF6E2D50500D000EF324D96E020EF42051
:1000F800DA6E4F0EDF6040D0438A010E2E6E1AD0A2
:100108002D50500D000E136E020E146EF350132670
:10011800F45014222E501324D96E000E1420DA6ED7
:10012800000E2E24036E046A030E042246EC26F009
:10013800DF6E2E2A2E50136E146A2D50500D000EAD
:10014800F324D96E020EF420DA6EDF50156E166AAB
:10015800020E1526000E16221350155C1650800A42
:10016800176E1450800A1758D8B0CAD7010E036EFC
:100178001B0EB3EC27F005D0010E036E1B0EB3EC7B
:1001880027F0000E036E730EB3EC27F005D0010EB6
:10019800036E1B0EB3EC27F02BA805D0800E036E60
:1001A800590EB3EC27F09EB09DA007D09E904D2A23
:1001B8004D50D8A402D00101602B47EC28F029C08B
:1001C80060F028C05FF027C05EF026C05DF025C053
:1001D800F5FF24C0F8FF23C0F7FF22C0F6FF21C0B7
:1001E800F4FF20C0F3FF1FC0DAFF1EC0D9FF1DC0F7
:1001F800E2FF1CC0E1FF1BC0EAFF1AC0E9FF19C0FB
:10020800FBFF18C0FAFF5D9211006BEF24F0E6ECDB
:100218000EF00009D8B4A2EF09F041B41200000EA4
:100228000101206F2FA404D00001B06BB02B02D0C5
:100238000001B06B010120510001B019FC0BB0198D
:100248000101206F2FA602D0208702D0010120973C
:100258002F50030BE806D8A404D00001B06BB02BD4
:1002680002D00001B06BB03BB04701012051000142
:10027800B019DF0BB0190101206F2FAE02D0208D0D
:1002880002D00101209D2FAE0AD037B002D0209FA6
:1002980002D00101208F30C023F131C024F138C0D1
:1002A80021F139C022F136C029F135C028F1419435
:1002B80093EF09F00A0E346002D09FEF09F020EEA8
:1002C80002F03250D9263350DA22DF500001CD6FC8
:1002D80020EE03F03250D9263350DA22DF50CE6FA9
:1002E80020EE04F03250D9263350DA22DF50D06F96
:1002F80020EE05F03250D9263350DA22DF50D16F84
:1003080020EE06F03250D9263350DA22DF50D26F71
:1003180020EE07F03250D9263350DA22DF50D36F5F
:1003280020EE08F03250D9263350DA22DF50D56F4C
:1003380020EE09F03250D9263350DA22DF50D66F3A
:10034800000E0101206F2FA602D0208702D00101E4
:1003580020972051030B0009D8A406D00001D0290A
:1003680002E1D129D8A400D10101B9510001D51960
:100378000EE10101BA510001D619D8A408D056508F
:10038800D21905E15750D319D8B49FEF09F032C0FC
:10039800D9FF33C0DAFF010EDF643FD032C0D9FF86
:1003A80033C0DAFFDF06000E4C6E000ED86F14D093
:1003B800D851010DF3503224D96EF4503320DA6E3F
:1003C8004C50010D610EF324E16E010EF420E26E33
:1003D800DFCFE7FF4C2AD82B3450D85DD8A0E8D718
:1003E8002FC03AF056C03FF057C040F037C03EF03B
:1003F800140E4AEC21F020EE3AF000EE7EF0060EE4
:10040800DBCFEBFFE806FCE2610E0001856F010E11
:10041800866F4CC087F038EC16F0000E0001D86FDC
:10042800030ED86501D036D0D851080D030EF32637
:10043800000EF422000EF324D96E010EF420DA6EB9
:10044800DF50D8B425D0D851080D000EF324D96E4A
:10045800010EF420DA6ED551DE181AE1D651DE18F5
:10046800D8A416D020EE0AF03250D9263350DA221A
:10047800D851080D020EF326000EF422000EF324C4
:10048800E16E010EF420E26EDE50E618D8B402D018
:10049800D82BC6D7040ED86102D09FEF09F0000E02
:1004A800D86F030ED86501D011D0D851080D030EAE
:1004B800F326000EF422000EF324D96E010EF42068
:1004C800DA6EDF50D8B402D0D82BEBD7040ED8613F
:1004D80045D0D851080D000EF324D96E010EF42032
:1004E800DA6ED5C0DEFFD6C0DDFF20EE0AF032504E
:1004F800D9263350DA22D851080D020EF326000E01
:10050800F422000EF324E16E010EF420E26EDFCF38
:10051800E7FFD851080D030EF326000EF422000E53
:10052800F324D96E010EF420DA6E030EDF6E6CEC44
:1005380025F00001D851080D040EF326000EF42210
:10054800000EF324D96E010EF420DA6E60C0DEFFCF
:1005580061C0DEFF62C0DEFF63C0DEFF0101205123
:10056800FC0B0109206F73D056500001CD1903E12F
:100578005750CE19D8A47ED20101B9510001D01923
:1005880005E10101BA510001D119D8A473D220EEB6
:1005980001F03250D9263350DA22DFA458D05CC09B
:1005A80061F1020E0101626FD2C063F1D3C064F140
:1005B800D5C065F1D6C066F156C067F157C068F17D
:1005C800B9C169F1BAC16AF120EE0AF03250D926F0
:1005D8003350DA22DF506B6F000E6C6F300E6D6F88
:1005E8000D0E4C6EBA510001D619D8B40DD0D2C038
:1005F800A4F0D3C0A5F0D5C0A6F0D6C0A7F0000ED1
:10060800A86F27EC12F021D0000E3A6E3A8A010E3C
:100618003D6E010E3E6ED50E3B6E000E3C6ED2C096
:100628003FF0D3C040F020EE3AF000EE7EF0060E28
:10063800DBCFEBFFE806FCE2610E0001856F010EDF
:10064800866F4CC087F038EC16F00101208520EE4B
:100658000BF03250D9263350DA22DF50D8A4D0D14B
:1006680020EE0CF03250D9263350DA22300EDE1844
:10067800D8A49DD1ABD1010194B340D06CEC25F046
:1006880060C0AAF161C0ABF162C0ACF163C0ADF16A
:1006980020EE08F03250D9263350DA22DF5001011B
:1006A800966F20EE09F03250D9263350DA22DF5007
:1006B800976F000E0001D76F070ED76501D019D0CC
:1006C800D751B06FB16B0D0EB027000EB123B051EA
:1006D8003224D96EB1513320DA6ED751010D980EFC
:1006E800F324E16E010EF420E26EDFCFE7FFD72B93
:1006F800E3D70101948394919FEF09F020EE08F06D
:100708003250D9263350DA229651DE18D8A40BD0AD
:1007180020EE09F03250D9263350DA229751DE18EC
:10072800D8B49FEF09F096519711D8A45BD0000E6A
:100738000001D76F070ED76501D02BD0D751B06F06
:10074800B16B0D0EB027000EB123B0513224D96E13
:10075800B1513320DA6ED751010DA20EF324E16EA8
:10076800010EF420E26EDFCFE7FFD751010DA20E94
:10077800F324D96E010EF420DA6ED751010D3A0E2A
:10078800F324E16E010EF420E26EDFCFE7FFD72BF2
:10079800D1D720EE08F03250D9263350DA22DF5074
:1007A8000101A06F20EE09F03250D9263350DA2229
:1007B800DF50A16FA0C158F0A1C159F056C0B7F1E0
:1007C80057C0B8F136EC23F00101956F9529D8A4EC
:1007D80083D08D0E496E58BE499024EC1FF001015C
:1007E800956F7AD00B0E4C6E4C50010D610EF324B0
:1007F800D96E010EF420DA6E000EDF6E4C2A4C50D2
:10080800010D610EF324D96E010EF420DA6E110E7B
:10081800DF6E4C2A000E0001D76F070ED76501D096
:100828002CD0D751B06FB16B0D0EB027000EB1238D
:10083800B0513224D96EB1513320DA6ED751010D3F
:10084800A20EF324E16E010EF420E26EDFCFE7FF83
:10085800D751010DA20EF324D96E010EF420DA6EE1
:100868004C50010D610EF324E16E010EF420E26E8E
:10087800DFCFE7FF4C2AD72BD0D720EE08F0325035
:10088800D9263350DA22DF500101A06F20EE09F09B
:100898003250D9263350DA22DF50A16F4C50010D67
:1008A800610EF324D96E010EF420DA6EA0C1DFFFC9
:1008B8004C2A4C50010D610EF324D96E010EF42020
:1008C800DA6EA1C1DFFF4C2A960E0001AE6F010E51
:1008D800AF6FF2EC22F00101948394819FEF09F04D
:1008E800000E0001CC6F070ECC6501D019D0CC5199
:1008F800B06FB16B0D0EB027000EB123B05132248A
:10090800D96EB1513320DA6ECC51010D3A0EF32471
:10091800E16E010EF420E26EDFCFE7FFCC2BE3D7C8
:100928008D0E496E20EE15F03250D9263350DA225A
:10093800DFBE499020EE15F03250D9263350DA2226
:10094800DF50586E20EE16F03250D9263350DA2296
:10095800DF50596E56C0B7F157C0B8F136EC23F0E6
:100968000101956F9529D8B411D095510D0D0C0E34
:10097800F326000EF422A00EF324D96E020EF42002
:10098800DA6EDF50496E4984498604D08D0E496E6F
:1009980058BE499024EC1FF00101956F9529D8B4F1
:1009A80002D0948101D0949194939FEF09F020EEA6
:1009B8000CF03250D9263350DA22DF50100AD8B45E
:1009C8005AD6010AD8B48CD79FEF09F020EE0AF066
:1009D8003250D9263350DA220101F451DE18D8A456
:1009E8009FEF09F053510001D51905E10101545158
:1009F8000001D619D8A49FEF09F041969FEF09F09E
:100A08003450F50F0101276F0B0E3224256F000EAD
:100A18003320266FD2C021F1D3C022F120EE08F096
:100A28003250D9263350DA22DE28D8A414D020EE4A
:100A380009F03250D9263350DA22DE28D8A40BD058
:100A480037B002D0209F02D00101208F30C023F19F
:100A580031C024F107D0208F080E3224236F000EF6
:100A68003320246F208D2751D8B49FEF09F041849B
:100A78009FEF09F032C0D9FF33C0DAFFDF50D8B496
:100A88009FEF09F032C0D9FF33C0DAFFDF06000E4E
:100A98004C6E000E0001D86F14D0D851010DF350E0
:100AA8003224D96EF4503320DA6E4C50010D610EA9
:100AB800F324E16E010EF420E26EDFCFE7FF4C2A4B
:100AC800D82B3450D85DD8A0E8D70101BA5100011D
:100AD800D119D8A42BD001016C51D8A427D0300E3D
:100AE8006D19D8A423D0000E3A6E3A8A010E3D6ED5
:100AF800010E3E6ED00E3B6E000E3C6ECDC03FF038
:100B0800CEC040F020EE3AF000EE7EF0060EDBCFCD
:100B1800EBFFE806FCE2610E0001856F010E866FAF
:100B28004CC087F038EC16F09FEF09F0CDC0A4F068
:100B3800CEC0A5F0D0C0A6F0D1C0A7F0000E2FB649
:100B4800010E0001A86F27EC12F0F5D3000E00018A
:100B5800CA6FCA51B06FB16B040EB027000EB12333
:100B6800B0513224D96EB1513320DA6E4D0EDE18F1
:100B7800D8A4E1D320EE01F03050D9263150DA2242
:100B8800DF50C56FC5C0B0F0010EB16FB02B02D0F9
:100B9800D890B137B02FFCD70001B151BE6F30C02B
:100BA800D9FF31C0DAFFDF50D8A402D0BE514512B8
:100BB800CA51B06FB16B060EB027000EB123B05109
:100BC8003224D96EB1513320DA6EC551010D320E7F
:100BD800F324E16E010EF420E26EDFCFE7FF41A0BF
:100BE800AAD338C0B7F139C0B8F130C0D9FF31C085
:100BF800DAFFDF50586E20EE01F03050D926315020
:100C0800DA22DF50596ECA51010DF3503224D96EE1
:100C1800F4503320DA6EDE28D8A48DD3CA51B06FD1
:100C2800B16B010EB027000EB123B0513224D96E3A
:100C3800B1513320DA6EDF50CB6F0A0E4A607BD396
:100C4800CB39030BB06F020EB06175D34A500E0D4D
:100C5800000EF324D96E030EF420DA6E5AC0DFFFBB
:100C68004A500E0D0B0EF326000EF422000EF3244C
:100C7800D96E030EF420DA6E28C1DFFF4A500E0D3C
:100C88000C0EF326000EF422000EF324D96E030E88
:100C9800F420DA6E29C1DFFF4A500E0D090EF32643
:100CA800000EF422000EF324D96E030EF420DA6E3F
:100CB800B7C1DEFFB8C1DDFF4A500E0D0D0EF32699
:100CC800000EF422000EF324D96E030EF420DA6E1F
:100CD800000EDF6E4A500E0D0D0EF326000EF422A4
:100CE800000EF324D96E030EF420DA6E0301DF8CB4
:100CF8000001CB31030BB06F4A500E0D0D0EF326D9
:100D0800000EF422000EF324D96E030EF420DA6EDE
:100D18000301DF500001B019FC0BB0190301DF6EAD
:100D28000001CBA70ED04A500E0D0D0EF326000E73
:100D3800F422000EF324D96E030EF420DA6E0301B8
:100D4800DF860001CB39030BB06F020EB0610ED005
:100D58004A500E0D0D0EF326000EF422000EF32459
:100D6800D96E030EF420DA6E0301DF8A23C1D9FF9E
:100D780024C1DAFF4A500E0D010EF326000EF422AC
:100D8800000EF324E16E030EF420E26EDFCFE7FFDE
:100D9800010120EE01F02351D9262451DA224A50CC
:100DA8000E0D020EF326000EF422000EF324E16E5F
:100DB800030EF420E26EDFCFE7FF4A500E0D0D0E52
:100DC800F326000EF422000EF324D96E030EF4204D
:100DD800DA6E0301DF8E4A2AAED2000E0001C06F20
:100DE800010E4B6401D0A7D2000ED86F070ED8654C
:100DF80001D014D0D851010DF3503024D96EF450DD
:100E08003120DA6ED851010D3A0EF324E16E010E4D
:100E1800F420E26EDFCFE7FFD82BE8D74FEC20F0C5
:100E28000001D46FD429D8A417D04B50D8A483D2AA
:100E3800B70E496E56C0B7F157C0B8F124EC1FF091
:100E48000001D46FD429D8A428D0010EC06FFF0E9A
:100E5800596EFE0E586E88D0D4510D0D0C0EF32627
:100E6800000EF422A00EF324D96E020EF420DA6EDE
:100E78000201DFA612D00001D4510D0D020EF32697
:100E8800000EF422A00EF324D96E020EF420DA6EBE
:100E9800DECF58F0DDCF59F067D00001D429D8B49F
:100EA80063D0D429586EBAC159F056C0B7F157C0AB
:100EB800B8F1020E4418D8A439D020EE01F032500F
:100EC800D9263350DA22DFAC31D058C0BCF059C033
:100ED800BDF0000E586E010ECF6F070ECF6501D022
:100EE8001DD0CFC059F036EC23F00001BF6FBF29E9
:100EF800D8A412D0000E586ECFC059F0CFC0B0F0B1
:100F0800010EB16FB02B02D0D890B137B02FFCD7FB
:100F18000001B151451202D0CF2BDFD7080ECF19EF
:100F2800D8A404D0BCC058F0BDC059F0BF0E496E5B
:100F380020EE01F03250D9263350DA22DFB002D049
:100F48004990588E24EC1FF00001D46FD4510D0D38
:100F58000C0EF326000EF422A00EF324D96E020E16
:100F6800F420DA6E0201DF88020E0101616F58C0B9
:100F780062F159C063F1C0C064F1040E4C6E560EA4
:100F880000019D6F000E9E6FD4510D0D040EF326C7
:100F9800000EF422A00EF3249F6F020EF420A06F1F
:100FA800010EA16F000EA26FFFEC20F0C4D120EE5D
:100FB80003F03250D9263350DA22DF50D8A47DD03E
:100FC80020EE01F03250D9263350DA22DF500101E9
:100FD800B96F20EE02F03250D9263350DA22DF50B2
:100FE800BA6FB951D8A41FD0010E446E44C0B0F0F6
:100FF8000001B04701015B510001B019F90BB019AC
:1010080001015B6FBAC1B0F0070E0001B017010E05
:10101800B16FB02B02D0D890B137B02FFCD70001F8
:10102800B12945120ED0000E446E44C0B0F0000144
:10103800B04701015B510001B019F90BB01901016A
:101048005B6FB90E0001656F010E666F560E676F14
:10105800000E686FE0EC24F04182BF0E496E000E6E
:101068000001D86F070ED86501D014D0D851010DF2
:10107800F3503024D96EF4503120DA6ED851010D76
:101088003A0EF324E16E010EF420E26EDFCFE7FFA3
:10109800D82BE8D70101B951D8A403D0000E596E56
:1010A80002D0BAC159F0000E586E56C0B7F157C0F9
:1010B800B8F124EC1FF0486E3ED14868566857686E
:1010C80058685968580E0001656F000E666F560E15
:1010D800676F000E686FE0EC24F02DD13750D8B45C
:1010E80016D030C0D9FF31C0DAFFDF50586E20EE7D
:1010F80001F03050D9263150DA22DF50596E36ECE3
:1011080023F00001C86FC829D8B415D11ED0000E2D
:101118000001D86F070ED86501D014D0D851010D41
:10112800F3503024D96EF4503120DA6ED851010DC5
:101138003A0EF324E16E010EF420E26EDFCFE7FFF2
:10114800D82BE8D74FEC20F0DCD7C8510D0D0C0E8A
:10115800F326000EF422A00EF324D96E020EF4201A
:10116800DA6E0201DFAAE7D048500001C819D8B4E6
:101178000FD0C8510D0D0C0EF326000EF422A00E50
:10118800F324D96E020EF420DA6E000EDF6ED3D08F
:10119800000ED86F060ED86501D083D0D8510D0D3A
:1011A8000C0EF326000EF422A00EF324D96E020EC4
:1011B800F420DA6E0201DFAE63D00001D8510D0DC4
:1011C8000C0EF326000EF422A00EF324D96E020EA4
:1011D800F420DA6E0201DFAA53D048500001D81972
:1011E800D8B44ED0000E4C6E4C50010D610EF32455
:1011F800D96E010EF420DA6E030EDF6E4C2A000E53
:101208003A6E3A8A3A50FC0B01093A6E010E3D6E6D
:10121800010E3E6ED8510D0DA00EF324D96E020EAC
:10122800F420DA6EDECF3FF0DDCF40F0D8510D0D5F
:10123800020EF326000EF422A00EF3243B6E020EDB
:10124800F4203C6E20EE3AF000EE7EF0060EDBCF86
:10125800EBFFE806FCE2610E856F010E866F4CC05D
:1012680087F038EC16F0000E0001C76F000EC66F4D
:10127800C6290F0EC759D8B003D0C64BC72BF8D70D
:101288000001D8510D0D0C0EF326000EF422A00E0D
:10129800F324D96E020EF420DA6E000EDF6ED82B1E
:1012A80079D748680101B969BA6956685768B90EAB
:1012B8000001656F010E666F560E676F000E686F4E
:1012C800E0EC24F0419237D0020E4B6401D033D0C9
:1012D80041A231D020EE01F03250D9263350DA2223
:1012E8005A50DE18D8A427D04450D8B424D0140EAD
:1012F8004AEC21F093EC1FF01ED032C0D9FF33C066
:10130800DAFFDF50010AD8B468D5030AD8B44FD63B
:10131800010AD8B4E3D6040AD8B4D6D70CD02F50D3
:10132800030B000AD8B45EEF01F0010AD8B4E5D780
:10133800020AD8B40BD441A413EC28F06CEC25F0C5
:1013480060C0C1F061C0C2F062C0C3F063C0C4F045
:10135800000E0001D86F030ED86501D052D0D851C5
:10136800080D030EF326000EF422000EF324D96EA6
:10137800010EF420DA6EDF50D8B441D0D851080DF0
:10138800040EF326000EF422000EF324D96E010E8B
:10139800F420DA6EDECFB0F0DECFB1F0DECFB2F0FF
:1013A800DECFB3F0B01FB11FB21FB31FB02B000EBA
:1013B800B123B223B323C151B025B46FC251B121B7
:1013C800B56FC351B221B66FC451B321B76FB751CE
:1013D80008E1210EB45DA10EB559070EB659D8A083
:1013E8000ED0D851080D030EF326000EF422000E7D
:1013F800F324D96E010EF420DA6E000EDF6ED82BBE
:10140800AAD7010194A3120094A153D00B0E4C6EDD
:101418004C50010D610EF324D96E010EF420DA6EE2
:10142800000EDF6E4C2A4C50010D610EF324D96E6C
:10143800010EF420DA6E110EDF6E4C2A000E000148
:10144800C96F070EC96501D015D0C951010D980E95
:10145800F324D96E010EF420DA6E4C50010D610EA2
:10146800F324E16E010EF420E26EDFCFE7FF4C2A91
:10147800C92BE7D74C50010D610EF324D96E010E2C
:10148800F420DA6E96C1DFFF4C2A4C50010D610E34
:10149800F324D96E010EF420DA6E97C1DFFF4C2ACF
:1014A800A00EAE6F010EAF6FF2EC22F00101949323
:1014B8001200AAC1B0F0ABC1B1F0ACC1B2F0ADC17D
:1014C800B3F00001B01FB11FB21FB31FB02B000E45
:1014D800B123B223B323C151B025B86FC251B12192
:1014E800B96FC351B221BA6FC451B321BB6FBB519D
:1014F80008E1610EB85DE30EB959160EBA59D8A0C5
:101508001200010194931200700E0001836F000E07
:10151800846FD2EF0EF0250E8A19D8B40AD06CC0A9
:10152800D9FF6DC0DAFF8AC0DFFF6C4B6D2BD2EF9D
:101538000EF0000E896F000E886F000E8C6F000E83
:101548008B6F0DD000018B8708D000018B8105D0EF
:1015580000018C8702D000018B856E4B6F2B6EC00B
:10156800F6FF6FC0F7FF0800F550200AD8B4EDD792
:10157800030AD8B4EDD70E0AD8B4E4D71D0AD8B4F4
:10158800EAD700018BB78B956EC0F6FF6FC0F7FFE7
:101598000800F550D8EC27F0D8A036D0000E00018E
:1015A800896F000E886F88C060F089C061F0000EF6
:1015B8000001636F0A0E626F9FEC27F060C088F02D
:1015C80061C089F0D00E0001746FFF0E756F6EC098
:1015D800F6FF6FC0F7FF0800F550766F776B745110
:1015E80076277551772376518827775189236E4B53
:1015F8006F2B6EC0F6FF6FC0F7FF0800F550D8ECF0
:1016080027F0D8A019D0CFD76EC0F6FF6FC0F7FF6C
:101618000800F5502A0AD8A40FD083C0D9FF84C087
:10162800DAFFDECF88F0DDCF89F0020E00018327D4
:10163800000E84236E4B6F2B6EC0F6FF6FC0F7FF52
:101648000800F5502E0AD8A438D000018C8D6E4BB6
:101658006F2B6EC0F6FF6FC0F7FF0800F5502A0A1F
:10166800D8A40DD083C0D9FF84C0DAFFDF50876FBC
:10167800020E8327000E84236E4B6F2BDFD0000EE3
:10168800876F10D06EC0F6FF6FC0F7FF0800F5CF68
:1016980074F0000187510A0DF3507425D00F876F3D
:1016A8006E4B6F2B6EC0F6FF6FC0F7FF0800F5504A
:1016B800D8EC27F0D8A0C2D0E5D7000E0001876F7C
:1016C800BDD08B8DE2D08B8B8B8FDFD083C0D9FFC1
:1016D80084C0DAFFDECF7FF0DDCF80F0020E8327F3
:1016E800000E84237F518011D8A404D0D30E7F6FBD
:1016F800FF0E806F000E826F000E816F03D0000115
:10170800814B822B81517F25746F82518021756FA7
:1017180074C0F6FF75C0F7FFF86A0E0EF76403D0C1
:101728000800F55005D0F6CFE9FFF7CFEAFFEF50F4
:101738000009D8A4E4D700018751D8B410D087C0D5
:1017480074F0756B74BF75078151745D825175595A
:10175800D8B005D08751816F826B81BF82078851CD
:10176800815D89518259D8B005D08151885F8251F5
:10177800895B04D0000E896F000E886F8BA709D093
:101788002BD06CC0D9FF6DC0DAFF200EDF6E6C4B1A
:101798006D2B8807D8A089078829F3E18929D8B44F
:1017A8001BD0EFD77FC0F6FF80C0F7FFF86A6CC088
:1017B800D9FF6DC0DAFF0E0EF76403D00800F550AC
:1017C80005D0F6CFE9FFF7CFEAFFEF50DF6E000153
:1017D8007F4B802B6C4B6D2B8107D8A0820781290A
:1017E800E1E18229D8A4DED78BB709D0D7D26CC063
:1017F800D9FF6DC0DAFF200EDF6E6C4B6D2B8807AA
:10180800D8A089078829F3E18929D8B4C7D2EFD7A6
:1018180083C0D9FF84C0DAFFDF508A6F020E8327A6
:10182800000E84238A0E7F6F000E806F000E826F79
:10183800010E816F80D7C00E8B1327D06EC0F6FFC4
:101848006FC0F7FF00016E4B6F2B0800F5CF8AF0D1
:101858008A51000AD8B4AFD2580AD8B434D73B0A50
:10186800D8B4D6D7070AD8B410D00D0AD8B40DD03A
:10187800060AD8B426D71C0AD8B428D7060AD8B47A
:10188800DAD70D0AD8B420D7CDD7C00E8B15746F10
:10189800000E8C15756F74517511D8A415D083C0BE
:1018A800D9FF84C0DAFFDECF85F0DDCF86F0020EE7
:1018B8008327000E842386AF13D0030E8B13856D08
:1018C800861FD8B0862B0CD083C0D9FF84C0DAFF1E
:1018D800DECF85F0DDCF86F0020E8327000E84234D
:1018E8008751D8A44ED085518611D8A44AD0872BC9
:1018F80048D0010E8A6F050E8A19D8B450D08A5183
:10190800020D3F0EF324F66EFE0EF420F76E09006A
:10191800F550855D0900F5508659D8A040D08A2B2E
:10192800EAD7010E8A6F040E8A19D8B438D08A51C2
:10193800020D490EF324F66EFE0EF420F76E090030
:10194800F550855D0900F5508659D8A028D08A2B16
:10195800EAD7010E8A6F060E8A19D8B420D08A51A8
:10196800020D330EF324F66EFE0EF420F76E090016
:10197800F550855D0900F5508659D8A010D08A2BFE
:10198800EAD78B51C00B000AD8B4B3D7400AD8B4F1
:10199800E0D7C00AD8B4C5D7400AD8B4AAD78A5164
:1019A800800A746F8751800A745DD8B003D087C0ED
:1019B8008AF009D08751800A746F8A51800A745D51
:1019C800D8A08AC087F088518911D8B40DD0030EE9
:1019D8008B15746F000E8C15756F74517511D8B412
:1019E80003D08807D8A089078CAD16D0800E87BF92
:1019F8007F0E746F8851875D8951800A7459D8B0F9
:101A080007D08751885F000E87BFFF0E895B04D01F
:101A1800000E896F000E886FC40E746F080E756F04
:101A28008BC076F08CC077F07451761775517717A4
:101A3800400E76190CE1080E7719D8A408D0885101
:101A48008911D8B428D08807D8A0890724D0C00E17
:101A5800746F080E756F8BC076F08CC077F0745178
:101A6800761775517717800E761915E1080E7719D4
:101A7800D8A411D089BF0BD0895104E1030E885D29
:101A8800D8A005D0FE0E8827FF0E892304D0000EAB
:101A9800896F000E886F800E8ABF7F0E746F885121
:101AA8008A5D8951800A7459D8B007D08A51885FF5
:101AB800000E8ABFFF0E895B04D0000E896F000EEE
:101AC800886F8BA556D0030E8B15746F000E8C157E
:101AD800756F74517511D8B406D06CC0D9FF6DC03C
:101AE800DAFF2D0E07D08BA107D06CC0D9FF6DC0CF
:101AF800DAFF200EDF6E2BD0C00E746F080E756FE4
:101B08008BC076F08CC077F07451761775517717C3
:101B1800800E76191EE1080E7719D8A41AD06CC069
:101B2800D9FF6DC0DAFF300EDF6E6C4B6D2B8BBBAF
:101B380004D0000E7A6F780E03D0000E7A6F580E1C
:101B4800796F6CC0D9FF6DC0DAFF79C0DFFF6C4BCD
:101B58006D2B88518911D8B406D16CC0D9FF6DC0DE
:101B6800DAFF300EDF6E6C4B6D2B8807D8A0890723
:101B7800F0D788518911D8A48BB70FD06CC0D9FF82
:101B88006DC0DAFF200EDF6E6C4B6D2B8807D8A076
:101B9800890788518911D8A4F1D7030E8B15746F62
:101BA800000E8C15756F74517511D8B406D06CC0C1
:101BB800D9FF6DC0DAFF2D0E07D08BA108D06CC0FD
:101BC800D9FF6DC0DAFF200EDF6E6C4B6D2BC00E97
:101BD800746F080E756F8BC076F08CC077F07451F7
:101BE800761775517717400E76190BE1080E77199D
:101BF800D8A407D06CC0D9FF6DC0DAFF300EDF6EF5
:101C0800B0D0C00E746F080E756F8BC076F08CC0A4
:101C180077F07451761775517717800E761903E1AE
:101C2800080E7719D8A49FD06CC0D9FF6DC0DAFF11
:101C3800300EDF6E6C4B6D2B8BBB04D0000E7C6FAF
:101C4800780E03D0000E7C6F580E7B6F6CC0D9FFE6
:101C58006DC0DAFF7BC0DFFF84D08751020D3F0ED5
:101C6800F324F66EFE0EF420F76E0900F5CF62F04D
:101C78000A00F5CF63F085C060F086C061F01CEC07
:101C880026F060C067F061C068F0000E00016A6F5E
:101C98000A0E696FB7EC26F0000167514BD085C07A
:101CA80060F086C061F08751020D490EF324F66E8C
:101CB800FE0EF420F76E0900F5CF62F00A00F5CFAA
:101CC80063F01CEC26F0000160510F0B786F8BBBA2
:101CD80004D0600E7D6FFF0E03D04F0E7D6FFF0E98
:101CE8007E6F7851010D7DC074F07EC075F0F350A1
:101CF8007427F450752374C0F6FF75C0F7FF080009
:101D0800F5CF8AF028D085C060F086C061F0875191
:101D1800020D330EF324F66EFE0EF420F76E090062
:101D2800F5CF62F00A00F5CF63F01CEC26F0000155
:101D38006051070B300F8A6F0ED08B51C00B000A11
:101D4800D8B48BD7400AD8B4DED7C00AD8B4A7D73E
:101D5800400AD8B482D76CC0D9FF6DC0DAFF8AC0F8
:101D6800DFFF6C4B6D2B87078729D8A4E6D78BB785
:101D780089BF14D0895103E18805D8A00FD06CC061
:101D8800D9FF6DC0DAFF200EDF6E6C4B6D2B880714
:101D9800D8A0890788518911D8A4F1D76EC0F6FF59
:101DA8006FC0F7FF6E4B6F2B0800F5CF8AF08A5192
:101DB800D8A48FEF0AF06CC0D9FF6DC0DAFF000E0F
:101DC800DF6E120081A2F08043A00FD001015251B2
:101DD80004E1800E515DD8A006D0000E526F000EAF
:101DE800516F439002D0514B522B5B68000E00019B
:101DF800676F010E676501D010D06751500D000E56
:101E0800F324D96E020EF420DA6EDF50D8B403D072
:101E180067C05BF002D0672BECD7020E5B6011D372
:101E2800010E686F5B50500D010EF326000EF42270
:101E3800000EF324D96E020EF420DA6E0201DFBC24
:101E480003D0000E0001686F000E2F6E000E376E73
:101E58005B50500D020EF326000EF422000EF32400
:101E6800D96E020EF420DA6EDF50CC0B0001666FDB
:101E78004DD25B50500D060EF326000EF422000ED4
:101E8800F324D96E020EF420DA6EDE28D8A40FD01F
:101E98005B50500D070EF326000EF422000EF324BB
:101EA800D96E020EF420DA6EDE28D8B42F842F8E75
:101EB8006851D8B429D05B50500D040EF326000E9B
:101EC800F422000EF324D96E020EF420DA6EDF50ED
:101ED800386E5B50500D050EF326000EF422000EEE
:101EE800F324D96E020EF420DA6EDF50396E5B509F
:101EF800500D080EF326000EF422000EF324306E67
:101F0800020EF420316E90D15B50500D080EF3266E
:101F1800000EF422000EF324D96E020EF420DA6EBD
:101F2800DF50386E5B50500D090EF326000EF42278
:101F3800000EF324D96E020EF420DA6EDF50396EEB
:101F48005B50500D0A0E9ED15B50500D000EF324CD
:101F5800D96E020EF420DA6EDF50EB0F346E5B5050
:101F6800500D120EC5D12F8E6851D8B437D05B50A2
:101F7800500D040EF326000EF422000EF324D96E41
:101F8800020EF420DA6EDF50386E5B50500D050EED
:101F9800F326000EF422000EF324D96E020EF4206C
:101FA800DA6EDF50396E5B50500D0E0EF326000EC0
:101FB800F422000EF324306E020EF420316E5B50D2
:101FC800500D000EF324D96E020EF420DA6EDF50A5
:101FD800E70F346E5B50500D160E8AD15B50500DD2
:101FE8000E0EF326000EF422000EF324D96E020E14
:101FF800F420DA6EDF50386E5B50500D0F0EF3266A
:10200800000EF422000EF324D96E020EF420DA6ECC
:10201800DF50396E5B50500D100EF326000EF4227F
:10202800000EF324306E020EF420316E5B50500D1A
:10203800000EF324D96E020EF420DA6EDF50E50F9D
:10204800346E5B50500D180E53D12F842F8E010E15
:10205800376E5B50500D040EF326000EF422000E6E
:10206800F324D96E020EF420DA6EDF50386E5B501E
:10207800500D050EF326000EF422000EF324D96E3F
:10208800020EF420DA6EDF50396E5B50500D060EEA
:10209800F326000EF422000EF324306E020EF42014
:1020A800316E5B50500D000EF324D96E020EF420F1
:1020B800DA6EDF50F50F18D15B50500D060EF3267F
:1020C800000EF422000EF324D96E020EF420DA6E0C
:1020D800DE28D8A40FD05B50500D070EF326000E53
:1020E800F422000EF324D96E020EF420DA6EDE28F4
:1020F800D8B42F842F8E010E376E6851D8A437D0EC
:102108005B50500D080EF326000EF422000EF32447
:10211800D96E020EF420DA6EDF50386E5B50500D27
:10212800090EF326000EF422000EF324D96E020ED7
:10213800F420DA6EDF50396E5B50500D0A0EF3262C
:10214800000EF422000EF324306E020EF420316EDD
:102158005B50500D000EF324D96E020EF420DA6E97
:10216800DF50F10F346E5B50500D0C0EC1D05B5038
:10217800500D040EF326000EF422000EF324D96E3F
:10218800020EF420DA6EDF50386E5B50500D050EEB
:10219800F326000EF422000EF324D96E020EF4206A
:1021A800DA6EDF50396E5B50500D080EF326000EC4
:1021B800F422000EF324306E020EF420316E5B50D0
:1021C800500D000EF324D96E020EF420DA6EDF50A3
:1021D800F30F346E5B50500D0A0E8AD02F8E010E0D
:1021E800376E6851D8B42FD05B50500D040EF326CB
:1021F800000EF422000EF324D96E020EF420DA6EDB
:10220800DF50386E5B50500D050EF326000EF42299
:10221800000EF324D96E020EF420DA6EDF50396E08
:102228005B50500D0D0E66D65B50500D000EF3241A
:10223800D96E020EF420DA6EDF50ED0F346E5B506B
:10224800500D100E55D05B50500D0D0EF326000E9C
:10225800F422000EF324D96E020EF420DA6EDF5059
:10226800386E5B50500D0E0EF326000EF422000E51
:10227800F324D96E020EF420DA6EDF50396E5B500B
:10228800500D0F0EF326000EF422000EF324306ECC
:10229800020EF420316E58D65B50500D060EF32610
:1022A800000EF422000EF324D96E020EF420DA6E2A
:1022B800DE28D8A40FD05B50500D070EF326000E71
:1022C800F422000EF324D96E020EF420DA6EDE2812
:1022D800D8B42F845B50500D000EF324D96E020E33
:1022E800F420DA6EDF50F60F346E5B50500D080E96
:1022F800F326000EF422000EF324326E020EF420B0
:10230800336E19D013EC28F0000E1200000166514C
:10231800080AD8B4C1D7880AD8B497D6080AD8B456
:10232800CBD6040AD8B45AD7440AD8B4A2D5040ADA
:10233800D8B419D6E7D75B50500D010EF326000E1E
:10234800F422000EF324D96E020EF420DA6E020194
:10235800DFA613D013EC28F0000E1200FC0E2F1687
:102368002CD02F50FC0B01092F6E27D0030E2F12F3
:1023780024D013EC28F0000E12005B50500D010E13
:10238800F326000EF422000EF324D96E020EF42078
:10239800DA6EDF50070B0001606F616B6151000A54
:1023A800D8A4E7D76051000AD8B4E0D7010AD8B456
:1023B800D5D7020AD8B4D5D7DCD7FF0E0001606F95
:1023C800FF0E616F5B50500D000EF324D96E020EA4
:1023D800F420DA6EDF50626F636B605162276151DF
:1023E8006323000E646F020E656F625164276351A8
:1023F80065235B50500DF3506425D96EF450652168
:10240800DA6EDF50366E5B50500D000EF324D96E35
:10241800020EF420DA6EDF50606F5B50500D000E34
:10242800616F020E626FF3506127F45062236051AE
:102438006125D96E000E6221DA6EDF50356E010E0D
:102448001200000E12000001A751070BAC6FAC512F
:102458000101BA19D8A431D0800E0001A66502D0B6
:10246800000E1200000E3A6E3A8AA8B102D03A96CF
:1024780001D03A86A6C058F0A7C059F0010E3D6EAB
:10248800010E3E6E580E3B6E000E3C6E56C03FF07D
:1024980057C040F020EE3AF000EE7EF0060EDBCF9B
:1024A800EBFFE806FCE2610E0001856F010E866F06
:1024B8004CC087F038EC16F01200ACC0A9F0010E41
:1024C8000001AA6FA92B02D0D890AA37A92FFCD750
:1024D8000001AA5145140009D8B477D0AC51010DB8
:1024E8002A0EF324D96E010EF420DA6E020EDF6490
:1024F80026D0AC51010D2A0EF324D96E010EF4201A
:10250800DA6E000EDF6EACC0A9F0010EAA6FA92B1F
:1025180002D0D890AA37A92FFCD70001AA51FF0AE8
:102528004516AC51010D320EF324D96E010EF4207C
:10253800DA6E000EDF6E93EC1FF0000E1200000E34
:102548003A6E3A8A0001A8B102D03A9601D03A868A
:10255800000E586EACC059F0010E3D6E010E3E6E75
:10256800580E3B6E000E3C6E56C03FF057C040F010
:1025780020EE3AF000EE7EF0060EDBCFEBFFE80629
:10258800FCE2610E0001856F010E866F4CC087F07A
:1025980038EC16F00009D8A40BD00001AC51010D9D
:1025A8002A0EF324D96E010EF420DA6EDF2AC5D77D
:1025B8000001AC51010D2A0EF324D96E010EF4204E
:1025C800DA6E000EDF6E010E1200000E0001AD6F14
:1025D800070EAD6501D0C3D0AD51010D320EF32405
:1025E800D96E010EF420DA6EDF50A96FACC0AAF0E4
:1025F800010EAB6FAA2B02D0D890AB37AA2FFCD70D
:102608000001AB51A9150009D8B4A6D0AD51010DF0
:102618002A0EF324D96E010EF420DA6E020EDF645E
:1026280054D0AD51010D2A0EF324D96E010EF420B9
:10263800DA6E000EDF6EADC0A9F0010EAA6FA92BED
:1026480002D0D890AA37A92FFCD70001AA51FF0AB7
:102658004516AD51010D320EF324D96E010EF4204A
:10266800DA6E000EDF6E4450D8B403D093EC1FF03E
:102678002AD0000E4C6E4C50010D610EF324D96E19
:10268800010EF420DA6E070EDF6E4C2A4C50010D55
:10269800610EF324D96E010EF420DA6E5AC0DFFF02
:1026A8004C2A0101B769B869B70E00019D6F010E88
:1026B8009E6F000E9F6F000EA06F010EA16F000E9F
:1026C800A26FFFEC20F0000E1200000E3A6E3A8A5C
:1026D8000001A8B102D03A9601D03A86000E586E91
:1026E800ADC059F0010E3D6E010E3E6E580E3B6EA8
:1026F800000E3C6E56C03FF057C040F020EE3AF056
:1027080000EE7EF0060EDBCFEBFFE806FCE2610E82
:102718000001856F010E866F4CC087F038EC16F00B
:102728000009D8A40CD00001AD51010D2A0EF324E4
:10273800D96E010EF420DA6EDF2A000E12000001B5
:10274800AD51010D2A0EF324D96E010EF420DA6E74
:10275800000EDF6E010E12000001AD2B39D7020EFC
:102768004418D8B45DD0000E3A6E3A8AA8B102D0A7
:102778003A9601D03A864404D8B424D0000E000119
:10278800AD6F070EAD6501D017D04550D8B412D043
:10279800ADC0A9F0010EAA6F000EAB6FA92B03D034
:1027A800D890AA37AB37A92FFBD70001AA51AB1194
:1027B800D8A402D0AD2BE5D7080EAD6103D0ADC0CB
:1027C80059F002D0000E596E000E586E010E3D6E83
:1027D800010E3E6E580E3B6E000E3C6E56C03FF02A
:1027E80057C040F020EE3AF000EE7EF0060EDBCF48
:1027F800EBFFE806FCE2610E0001856F010E866FB3
:102808004CC087F038EC16F00009D8A404D00101B8
:102818002A2B000E1200000E01012A6F010E120071
:10282800000E3A6E3A8A0001A8B102D03A9601D059
:102838003A86ACC059F0000E586E010E3D6E010E7E
:102848003E6E580E3B6E000E3C6E56C03FF057C0B1
:1028580040F020EE3AF000EE7EF0060EDBCFEBFF04
:10286800E806FCE2610E0001856F010E866F4CC020
:1028780087F038EC16F00009D8A404D001012A2BFF
:10288800000E1200000E01012A6F010E12004650C0
:10289800D8B40BD001016C51D8B407D0418647C0D9
:1028A800F4F1060E0001F56F04D0020E0001F56F79
:1028B8004196DB51D8B43CD1000EF66F070EF66591
:1028C80001D014D0F651010DF350D925D96EF4502A
:1028D800DA21DA6EF651010D3A0EF324E16E010E9B
:1028E800F420E26EDFCFE7FFF62BE8D74FEC20F0BD
:1028F8000001F76FF729D8A43DD05CC061F1020E42
:102908000101626F636964696569666956C067F148
:1029180057C068F1B9C169F1BAC16AF147C06BF132
:10292800472A000E3A6E3A8A0001DCB102D03A9684
:1029380001D03A86D9C03BF0DAC03CF0000E3D6EBB
:10294800010E3E6E56C03FF057C040F0419620EE53
:102958003AF000EE7EF0060EDBCFEBFFE806FCE275
:10296800610E0001856F010E866F4CC087F038EC50
:1029780016F012000001F7510D0D0C0EF326000E93
:10298800F422A00EF324D96E020EF420DA6E0201AE
:10299800DFA6B3D74650D8B411D00001F7510D0DBA
:1029A800020EF326000EF422A00EF324D96E020EB6
:1029B800F420DA6EDECF53F1DDCF54F1040E0101BD
:1029C800616FF5C062F10001F7510D0DA00EF324FF
:1029D800D96E020EF420DA6EDF500101636F000138
:1029E800F7510D0D010EF326000EF422A00EF3246C
:1029F800D96E020EF420DA6EDF500101646F000117
:102A0800F7510D0D020EF326000EF422A00EF3244A
:102A1800D96E020EF420DA6EDF500101656F0001F5
:102A2800F7510D0D030EF326000EF422A00EF32429
:102A3800D96E020EF420DA6EDF500101666F56C0BF
:102A480067F157C068F1B9C169F1BAC16AF147C005
:102A58006BF1472A0001F7510D0DA00EF324D96E32
:102A6800020EF420DA6EDECFA4F0DDCFA5F0F75128
:102A78000D0D020EF326000EF422A00EF324D96EDB
:102A8800020EF420DA6EDECFA6F0DDCFA7F0DCC0B0
:102A9800A8F027EC12F00009D8A402D04196120041
:102AA80041A612006CEC25F060C0E5F061C0E6F0CC
:102AB80062C0E7F063C0E8F06EEC28F00009D8A423
:102AC8008CEC28F041A612006CEC25F060C0E9F00F
:102AD80061C0EAF062C0EBF063C0ECF0E5C0DDF085
:102AE800E6C0DEF0E7C0DFF0E8C0E0F00001DD1F7F
:102AF800DE1FDF1FE01FDD2B000EDE23DF23E023B8
:102B0800E951DD25E16FEA51DE21E26FEB51DF216A
:102B1800E36FEC51E021E46FE45108E1210EE15D3F
:102B2800A10EE259070EE359D8A0C6D74196120064
:102B3800040E0101616FF5C062F156C063F157C020
:102B480064F1D9C0D9FFDAC0DAFFDF50656F000140
:102B580020EE01F0D951D926DA51DA22DF500101ED
:102B6800666F56C067F157C068F1B9C169F1BAC15B
:102B78006AF147C06BF1472AD9C0D9FFDAC0DAFF3A
:102B8800DF50536F000120EE01F0D951D926DA51F8
:102B9800DA22DF500101546FD9C0D9FFDAC0DAFF59
:102BA800DF50586E000120EE01F0D951D926DA51D4
:102BB800DA22DF50596E56C0A4F057C0A5F058C0AD
:102BC800A6F059C0A7F0DCC0A8F027EC12F0000965
:102BD800D8A402D04196120041A612006CEC25F050
:102BE80060C0EDF061C0EEF062C0EFF063C0F0F0DD
:102BF8006EEC28F00009D8A48CEC28F041A612004D
:102C08006CEC25F060C0F1F061C0F2F062C0F3F046
:102C180063C0F4F0EDC0DDF0EEC0DEF0EFC0DFF031
:102C2800F0C0E0F00001DD1FDE1FDF1FE01FDD2B1D
:102C3800000EDE23DF23E023F151DD25E16FF251A1
:102C4800DE21E26FF351DF21E36FF451E021E46FFD
:102C5800E45108E1210EE15DA10EE259070EE359A6
:102C6800D8A0C6D741961200000E00019C6F000E36
:102C78009B6F7EA502D0010E816F7EA702D0000E49
:102C8800826F7E51030BE806D8A402D0030E06D04B
:102C98007E51030B0009D8A402D0010E996F54503D
:102CA80083190EE155508419D8A40AD0542803E199
:102CB8005528D8B405D0050E9A6F998D010E03D00A
:102CC800070E9A6F000E986F8151D8B402D0020E89
:102CD80001D0080E9A278251D8B402D0020E01D032
:102CE800080E9A277EBB7EB501D0998B7E51030BC7
:102CF800030AD8A409D0000E996F070E9A6F000E28
:102D0800986F010E826F7E9B9CC062F0636B9AC0C5
:102D180064F03FEC25F000019C2B9CC062F0636BD3
:102D28009A518725646F3FEC25F000019C2B9CC0CD
:102D380062F0636B99C064F03FEC25F000019C2BB6
:102D48007E51030B030AD8A413D09CC062F0636BB6
:102D5800800E646F3FEC25F000019C2B9CC062F054
:102D6800636B5AC164F03FEC25F001015A2B80D007
:102D78008151D8B40BD08251D8B408D09CC062F02D
:102D8800636B880E646F3FEC25F023D08151D8B473
:102D98000BD08251D8A408D09CC062F0636BC80ED7
:102DA800646F3FEC25F015D08151D8A40BD0820573
:102DB800D8A408D09CC062F0636B8C0E646F3FECA3
:102DC80025F007D09CC062F0636BCC0E646F3FECBB
:102DD80025F000019C2B9CC062F0636B5AC164F023
:102DE8003FEC25F001015A2B00019C2B9CC062F09E
:102DF800636B83C064F03FEC25F000019C2B9CC002
:102E080062F0636B84C064F03FEC25F000019C2BFA
:102E18007EA511D09CC062F0636BFF0E646F3FEC1F
:102E280025F000019C2B9CC062F0636BFF0E646F61
:102E38003FEC25F01DD08151D8B41DD09CC062F064
:102E4800636B7FC0D9FF80C0DAFFDF50646F3FEC4F
:102E580025F000019C2B9CC062F0636B20EE01F012
:102E68007F51D9268051DA22DF50646F3FEC25F07C
:102E780000019C2B19D0000E9B6F070E9B6501D09B
:102E880013D09CC062F0636B9B51010DF3507F25FA
:102E9800D96EF4508021DA6EDF50646F3FEC25F074
:102EA80000019C2B9B2BE9D79851D8A412D09CC029
:102EB80062F0636B54C064F03FEC25F000019C2B7A
:102EC8009CC062F0636B55C064F03FEC25F00001D4
:102ED8009C2B8251D8B413D09CC062F0636B52C053
:102EE80064F03FEC25F000019C2B9CC062F0636B02
:102EF80053C064F03FEC25F000019C2B1BD0000E62
:102F08009B6F070E9B6501D015D09CC062F0636B68
:102F18009B51010DF35001014F25D96EF4505021FA
:102F2800DA6EDF500001646F3FEC25F000019C2B46
:102F38009B2BE7D7000E9B6F12D09CC062F0636B8F
:102F48009B51010DF3508525D96EF4508621DA6E18
:102F5800DF50646F3FEC25F000019C2B9B2B8751C1
:102F68009B5DD8A0EAD743807EBB7EB504D0050E12
:102F78009B6F438203D0010E9B6F43929BC062F00C
:102F8800370E46EC27F06CEC25F060C090F061C07D
:102F980091F062C092F063C093F081A2F08043B0D8
:102FA80005D043A444D04394000E12006CEC25F0E5
:102FB80060C094F061C095F062C096F063C097F06D
:102FC80090C088F091C089F092C08AF093C08BF0CD
:102FD8000001881F891F8A1F8B1F882B000E8923D9
:102FE8008A238B23945188258C6F955189218D6F65
:102FF80096518A218E6F97518B218F6F8F518E1129
:1030080006E1210E8C5D4E0E8D59D8A0C6D7E1EC95
:1030180019F0520E0001656F000E666F540E676F4F
:10302800000E686FE0EC24F04390000E1200010ED1
:1030380012000101CC6F030E0101CB6F0001F905ED
:10304800D8A412D00EEC1BF006D06EEC28F00009C4
:10305800D8A48CEC28F0010194B3F7D794A102D03E
:1030680095511200FF0E12000001F951D8A4A3D106
:103078000101CC29D8B406D026D00101CB2F02D02B
:10308800FF0E12005AC0BBF1010EBC6FBD6BBE6BC8
:10309800BF6BBB2B05D0D890BC37BD37BE37BF3709
:1030A800BB2FF9D7BCC1D9F0BDC1DAF0BEC1DBF086
:1030B800BFC1DCF00A0E13EC1DF00009D8B4DDD74F
:1030C800000E0101CC6FCC510E0D090EF326000E37
:1030D800F422000EF324D96E030EF420DA6EDECF4C
:1030E800B7F1DDCFB8F1CC510E0D010EF326000E6D
:1030F800F422000EF324D96E030EF420DA6EDF50AA
:10310800586ECC510E0D020EF326000EF422000E5E
:10311800F324D96E030EF420DA6EDF50596E36ECC4
:1031280023F0486E4828D8A408D0D9EC26F0486E79
:103138004828D8A402D0FF0E120048500D0D0C0EDE
:10314800F326000EF422A00EF324D96E020EF4200A
:10315800DA6E000EDF6E0101CC510E0D090EF3265A
:10316800000EF422000EF324D96E030EF420DA6E5A
:1031780048500D0DA00EF324E16E020EF420E26E0D
:10318800DECFE6FFDDCFE5FFCC510E0D010EF326B5
:10319800000EF422000EF324D96E030EF420DA6E2A
:1031A80048500D0D020EF326000EF422A00EF32453
:1031B800E16E020EF420E26EDFCFE7FFCC510E0D78
:1031C800020EF326000EF422000EF324D96E030E2D
:1031D800F420DA6E48500D0D030EF326000EF4228B
:1031E800A00EF324E16E020EF420E26EDFCFE7FFBB
:1031F80048500D0D0C0EF326000EF422A00EF324F9
:10320800D96E020EF420DA6E0201DF8648500D0DE9
:103218000C0EF326000EF422A00EF324D96E020E33
:10322800F420DA6EDF8248500D0D0C0EF326000EE6
:10323800F422A00EF324D96E020EF420DA6EDF8A8F
:1032480048500D0D0C0EF326000EF422A00EF324A8
:10325800D96E020EF420DA6EDF800101CC510E0D1A
:10326800000EF324D96E030EF420DA6EDF50C7EC9B
:1032780027F048500D0DA00EF324D96E020EF4204D
:10328800DA6EDECF56F0DDCF57F058685968580E21
:103298000001656F000E666F560E676F000E686F4F
:1032A800E0EC24F0000E4C6E4C50010D610EF3243E
:1032B800D96E010EF420DA6E010EDF6E4C2A4C50E6
:1032C800010D610EF324D96E010EF420DA6E5BC194
:1032D800DFFF4C2A48500D0DA00EF32400019D6F0E
:1032E800020EF4209E6F48500D0D020EF326000EBC
:1032F800F422A00EF3249F6F020EF420A06F010E9B
:10330800A16F080EA26FFFEC20F06CEC25F060C0F6
:10331800C3F161C0C4F162C0C5F163C0C6F13AD05F
:103328006EEC28F00009D8A48CEC28F06CEC25F0A1
:1033380060C0C7F161C0C8F162C0C9F163C0CAF119
:10334800C3C1BBF1C4C1BCF1C5C1BDF1C6C1BEF1A9
:103358000101BB1FBC1FBD1FBE1FBB2B000EBC2322
:10336800BD23BE23C751BB25BF6FC851BC21C06F49
:10337800C951BD21C16FCA51BE21C26FC25108E1F6
:10338800210EBF5DA10EC059070EC159D8A002D0A9
:10339800FF0E120048500D0D0C0EF326000EF422FD
:1033A800A00EF324D96E020EF420DA6E0201DFA813
:1033B800B7D748501200FF0E12008C9E030E000172
:1033C800736F000E746F000E756F000E766F1BD052
:1033D8009A0E6B6F020E6C6F000E6D6F000E6E6FA3
:1033E8006B07000E6C5B6D5B6E5B6B29F9E16C29FA
:1033F800F7E16D29F5E16E29D8A4F2D77307000E1D
:10340800745B755B765B7351741175117611D8A472
:10341800DFD78C8E0A0E776F000E786F000E796FEB
:10342800000E7A6F1BD09A0E6F6F020E706F000E2F
:10343800716F000E726F6F07000E705B715B725BCD
:103448006F29F9E17029F7E17129F5E17229D8A40A
:10345800F2D77707000E785B795B7A5B7751781142
:1034680079117A11D8A4DFD7070E626F550E46EC92
:1034780027F0540E2DEC27F000017D6F7DC06AF017
:10348800070E6A17D8A4F5D7000E7C6F000E7B6F65
:10349800E80E7B5D030E7C59D8B003D07B4B7C2BA8
:1034A800F7D7010E626F1B0E46EC27F0FF0E0001E6
:1034B800626F070E46EC27F0FF0E0001626F090EDF
:1034C80046EC27F0FF0E0001626F030E46EC27F072
:1034D800FF0E0001626F050E46EC27F0000E00019A
:1034E8007D6F070E7D6501D015D07D51010DF3501C
:1034F80001014F25D96EF4505021DA6EDF500001DA
:10350800626F7D51020DF3500B0F46EC27F000015E
:103518007D2BE7D7020E636F020E626F800E646F19
:103528003FEC25F0020E0001636F030E626F000E80
:10353800646F3FEC25F0020E0001636F060E626FA8
:10354800900E646F3FEC25F0020E0001636F070ECA
:10355800626F800E646F3FEC25F0020E0001636F0E
:10356800080E626F100E646F3FEC25F0020E00012A
:10357800636F200E626F210E646F3FEC25F0800EA2
:103588000001626F750E46EC27F0400E0001626F75
:103598007D0E46EC27F0600E0001626F7F0E46EC50
:1035A80027F0980E0001626F310E46EC27F0950E59
:1035B8000001626F5D0E46EC27F0020E0001636F9A
:1035C8000F0E626F12EC25F000017D6F7D51A00B8C
:1035D800A00AD8A4F2D7E60E626F650E46EC27F073
:1035E800020E0001636F000E626F030E646F3FEC02
:1035F80025F0020E0001636F010E626F020E646F08
:103608003FEC25F0000E0001686F010159516FEC85
:1036180026F0120001019491020E4418D8A4D4D0C7
:1036280094B32ED06CEC25F060C0AAF161C0ABF168
:1036380062C0ACF163C0ADF1000E0101976F000EDE
:10364800966F000E0001F86F070EF86501D014D0D0
:10365800F851010DF50EF324D96E010EF420DA6E3F
:10366800F851010D980EF324E16E010EF420E26E7C
:10367800DFCFE7FFF82BE8D701019483949112007C
:1036880096519711D8B41200B951961904E1BA515C
:103698009719D8B412000B0E4C6E4C50010D610EE8
:1036A800F324D96E010EF420DA6E000EDF6E4C2A78
:1036B8004C50010D610EF324D96E010EF420DA6E20
:1036C800110EDF6E4C2A000E0001F86F070EF86528
:1036D80001D015D0F851010DF50EF324D96E010E65
:1036E800F420DA6E4C50010D610EF324E16E010EE8
:1036F800F420E26EDFCFE7FF4C2AF82BE7D74C50D7
:10370800010D610EF324D96E010EF420DA6EB9C1F1
:10371800DFFF4C2A4C50010D610EF324D96E010EC7
:10372800F420DA6EBAC1DFFF4C2A000EF86F070EDC
:10373800F86501D014D0F851010D980EF324D96E14
:10374800010EF420DA6EF851010D3A0EF324E16E01
:10375800010EF420E26EDFCFE7FFF82BE8D796C121
:1037680058F097C159F036EC23F00101956F95296F
:10377800D8B40FD095510D0D0C0EF326000EF4227F
:10378800A00EF324D96E020EF420DA6EDF50496ED3
:1037980004D08C0E496E58AE498056C0B7F157C058
:1037A800B8F124EC1FF00101956F960E0001D96F56
:1037B800010EDA6F000EDB6F000EDC6F4BEC14F0BD
:1037C80001019493948112006CEC25F060C0AAF179
:1037D80061C0ABF162C0ACF163C0ADF1000E596ECF
:1037E800000E586E0B0E4C6E4C50010D610EF324FA
:1037F800D96E010EF420DA6E000EDF6E4C2A4C50A2
:10380800010D610EF324D96E010EF420DA6E100E4C
:10381800DF6E4C2A000E0001F86F070EF86501D024
:1038280015D0F851010DF50EF324D96E010EF420D0
:10383800DA6E4C50010D610EF324E16E010EF42096
:10384800E26EDFCFE7FF4C2AF82BE7D7580ED96F87
:10385800000EDA6F000EDB6F000EDC6F4BEC14F01D
:10386800010194831200000E0101EF6F000EEE6F4C
:10387800BB0E00016C6F010E6D6F510E6E6FFE0E68
:103888006F6FF9C070F0FAC071F0FBC072F0FCC045
:1038980073F088EC0AF00B0E4C6E14D0BB0E0101CD
:1038A800EE25D96E010EEF21DA6E4C50010D610E36
:1038B800F324E16E010EF420E26EDFCFE7FF4C2A1D
:1038C800EE4BEF2BBB0E0101EE25D96E010EEF2159
:1038D800DA6EDF50D8A4E2D74C50010D610EF32404
:1038E800D96E010EF420DA6E000EDF6E4C2A000E3F
:1038F8000001D96F400EDA6F000EDB6F000EDC6F2F
:103908000A0E13EC1DF00101ED6FED51D8B464D02F
:10391800000EF36F000EF26F4FD0F2C160F0F3C1EA
:1039280061F0000E0001636F0E0E626F9FEC27F0CE
:10393800010E00016027000E6123000EFD6F030ECB
:10394800FE6F6051FD276151FE23B90EFD1904E198
:10395800010EFE19D8B418D0F2C160F0F3C161F0BD
:10396800000E636F0E0E626F9FEC27F0010E0001D0
:103978006027000E6123000E60250101F06F030E21
:10398800000161210101F16F710E0001616FFF0EED
:10399800626F2FEC24F0F0C161F0F1C162F0020E09
:1039A8000001636F77EC23F0F30E0001616FFF0EE7
:1039B800626F2FEC24F010D0ED510001FD6FFE6B0B
:1039C800FD510101F25DF351800A0001FF6FFE51C4
:1039D800800AFF59D8A0A1D73A0E0001616FFF0EE7
:1039E800626F2FEC24F0F0C161F0F1C162F0020EB9
:1039F8000001636F77EC23F0F30E0001616FFF0E97
:103A0800626F2FEC24F0F0C1D9F0F1C1DAF0000EAA
:103A18000001DB6F000EDC6F4BEC14F012000001AC
:103A2800F66F010E0001EA6F000EEB6F000EEC6FEF
:103A3800000EED6F5AC0F7F0000EF86F090EF8652A
:103A480001D00CD0F8510E0D000EF324D96E030EE0
:103A5800F420DA6EFF0EDF6EF82BF0D7000E4A6EF8
:103A68004180000EF86FADD0F8C0DDF0EAC0DEF09E
:103A7800EBC0DFF0ECC0E0F0EDC0E1F0DD2B05D0ED
:103A8800D890DE37DF37E037E137DD2FF9D7D95166
:103A9800DE15E26FDA51DF15E36FDB51E015E46FF5
:103AA800DC51E115E56F000EE215E66FF80EE3153F
:103AB800E76FFF0EE415E86F070EE515E96FE651AD
:103AC800E711E811E911D8B47BD0F851C7EC27F019
:103AD800000E4C6E4C50010D610EF324D96E010E90
:103AE800F420DA6E070EDF6E4C2A4C50010D610E81
:103AF800F324D96E010EF420DA6E5AC0DFFF4C2A87
:103B08000101B769B869B70E00019D6F010E9E6F7C
:103B1800000E9F6F000EA06F010EA16F000EA26F26
:103B2800FFEC20F06CEC25F060C0EEF061C0EFF027
:103B380062C0F0F063C0F1F06EEC28F00009D8A480
:103B48008CEC28F06CEC25F060C0F2F061C0F3F06A
:103B580062C0F4F063C0F5F0EEC0DDF0EFC0DEF057
:103B6800F0C0DFF0F1C0E0F00001DD1FDE1FDF1F55
:103B7800E01FDD2B000EDE23DF23E023F251DD25DD
:103B8800E16FF351DE21E26FF451DF21E36FF5516C
:103B9800E021E46FF651040DF70EF324F66EFD0EE6
:103BA800F420F76EE1510900F55CE2510900F5587F
:103BB800E3510900F558E4510900F558D8B0BCD7CD
:103BC800F82B1F0EF86550D7F751C7EC27F0419036
:103BD8004A501200000E8FEC1EF00E0EC7EC27F0B4
:103BE8000009D8A408D0B80E0001616FFE0E626FFC
:103BF8002FEC24F08FD0000E0001D96F400EDA6F41
:103C0800000EDB6F000EDC6F0A0E13EC1DF00001D6
:103C1800FD6F000EFC6FFD51D8B422D0000EFE6F70
:103C28001BD0FE510E0D090EF326000EF422000ED5
:103C3800F324D96E030EF420DA6E210EDE1806E1A5
:103C4800430EDE18D8A402D0010E01D0000EFC6F7E
:103C5800FC51D8A405D0FE2BFD51FE5DD8A0E1D7BC
:103C6800FC51D8B41CD0020E75EC27F0000E0001F0
:103C7800F96FFE511DEC18F0FF0AD8A408D0D40E35
:103C88000001616FFE0E626F2FEC24F043D0770EB7
:103C98000001616FFE0E626F2FEC24F023D0000E3E
:103CA80075EC27F0000E0001696F000E6A6F000EB8
:103CB8006B6F000E6C6F000E6D6F000EF3EC23F04F
:103CC8000009D8A408D0090E0001616FFF0E626FC9
:103CD8002FEC24F01FD09C0E0001616FFE0E626F66
:103CE8002FEC24F0230E0001616FFF0E626F2FECA2
:103CF80024F0B90E0001616F010E626F020E636F4E
:103D080077EC23F0F30E0001616FFF0E626F2FEC6A
:103D180024F01200FFD70001836F0101B969BA6965
:103D2800430E576E210E566E000E0001876F060E69
:103D3800876501D010D087510D0D0C0EF326000EAB
:103D4800F422A00EF324D96E020EF420DA6E000ECF
:103D5800DF6E872BECD7000E876F070E876501D0C3
:103D680016D08751010D320EF324D96E010EF420BE
:103D7800DA6E000EDF6E8751010D2A0EF324D96E1C
:103D8800010EF420DA6E000EDF6E872BE6D7000EE8
:103D9800456E000E446E000E426E000E416E000E1F
:103DA8000101946F000E5B6F53EC28F0000E4C6E0F
:103DB800000E0001846F8451870B4009846F84834F
:103DC80083B102D0849502D000018485F50E856FF9
:103DD800010E866F84C07EF085C07FF086C080F0BB
:103DE80095EC26F0B90E0001656F010E666F560E50
:103DF800676F000E686FE0EC24F05A50C7EC27F0AC
:103E080001015B814BC082F00001823B01015B51E3
:103E180000018219CF0B821901015B6F5B8D44C0D1
:103E280082F00001824701015B5100018219F90B00
:103E3800821901015B6FD6CF47F0F090F08612002F
:103E48000001696949A403D04FEC20F004D049A6C9
:103E580004D036EC23F00001696F6929D8A404D096
:103E6800D9EC26F00001696F6929D8B456D0695198
:103E78000D0D0C0EF326000EF422A00EF324D96EBD
:103E8800020EF420DA6E49C0DFFF49A428D0000EE4
:103E9800686F070E686501D022D06851010D3A0E8F
:103EA800F324D96E010EF420DA6E6851010D040E68
:103EB800F326000EF422A00E666F020E676FF35011
:103EC8006627F450672369510D0DF3506625E16E9E
:103ED800F4506721E26EDFCFE7FF682BDAD749A6F7
:103EE80010D069510D0D020EF326000EF422A00E1B
:103EF800F324D96E020EF420DA6E58C0DEFF59C0E2
:103F0800DDFF69510D0DA00EF324D96E020EF420C9
:103F1800DA6EB7C1DEFFB8C1DDFF69511200000ECD
:103F28004C6E4C50010D610EF324D96E010EF42035
:103F3800DA6EFF0EDF6E4C2A4C50010D610EF32431
:103F4800D96E010EF420DA6E5BC1DFFF4C2A4C50AB
:103F5800010D610EF324D96E010EF420DA6E000E05
:103F6800DF6E4C2A4C50010D610EF324D96E010E00
:103F7800F420DA6E000EDF6E4C2A4C50010D610EF3
:103F8800F324D96E010EF420DA6E4D0EDF6E4C2A42
:103F98004C50010D610EF324D96E010EF420DA6E37
:103FA800410EDF6E4C2A4C50010D610EF324D96E80
:103FB800010EF420DA6E45C0DFFF4C2A560E0001D0
:103FC8009D6F000E9E6F000E9F6F000EA06F030E78
:103FD800A16F040EA26FFFEC20F01200000E00018A
:103FE800E96F000EE86FA20E6C6F000E6D6F510E38
:103FF8006E6FFE0E6F6F9EC070F09FC071F0A0C014
:1040080072F0A1C073F088EC0AF00B0E4C6E14D05D
:10401800A20E0001E825D96E000EE921DA6E4C5097
:10402800010D610EF324E16E010EF420E26EDFCF84
:10403800E7FF4C2AE84BE92BA20E0001E825D96ED0
:10404800000EE921DA6EDF50D8A4E2D74C50010DFA
:10405800610EF324D96E010EF420DA6E000EDF6EC5
:104068004C2A000EA6EC24F0D40E00016C6F000E52
:104078006D6FA40E6E6FFF0E6F6FA0C070F0A1C0C1
:1040880071F088EC0AF0D40E0001616F000E626FC7
:104098002FEC24F01200000E0001656F060E656516
:1040A80001D04FD065510D0D0C0EF326000EF422F1
:1040B800A00EF324D96E020EF420DA6E0201DFAEF0
:1040C8003DD0000165510D0D0C0EF326000EF422B3
:1040D800A00EF324D96E020EF420DA6E0201DFA4DA
:1040E8002DD0000E0001646F070E646501D024D046
:1040F8006451010D3A0EF324D96E010EF420DA6EE4
:104108006451010D040EF326000EF422A00E616F17
:10411800020E626FF3506127F450622365510D0D52
:10412800F3506125E16EF4506221E26EDE50E6182C
:10413800D8A404D0642BD8D7655112000001652B90
:10414800ADD7FF0E120051504F5CD8A004D050508C
:104158004E5CD8B0120071B0FED751504F5CD8B049
:104168001AD04F50010D420EF324D96E010EF420DF
:10417800DA6EDF50756E4F2A51504F18D8A41200CE
:104188005050D8A412007184010E0E6E2C0E0D6EC4
:1041980023EC22F0120050504E5CD8B012004E5062
:1041A800010D8C0EF324D96E030EF420DA6EDF5065
:1041B800D8A40AD04E50010D8C0EF324D96E030EEC
:1041C800F420DA6E200EDF6E4E50010D8C0EF324B3
:1041D800D96E030EF420DA6EDF50756E4E2A5050F9
:1041E8004E18D8A412007184010E0E6E2C0E0D6E9E
:1041F80023EC22F01200000E3A6E3A500001A11989
:10420800FC0BA1193A6E9F51A011D8B43A843AB464
:1042180003D0A36BA32B02D00001A36BA33BA3473E
:104228003A50A319DF0BA3193A6E3A8E9FC03BF0A0
:10423800A0C03CF0A2A702D0010E01D0000E3D6E36
:10424800A2A502D0010E01D0000E3E6E9DC0D9FF7E
:104258009EC0DAFFDF503F6E20EE01F09D51D92657
:104268009E51DA22DF50406E20EE3AF000EE7EF0EA
:10427800060EDBCFEBFFE806FCE2610E856F010E50
:10428800866F4CC087F038EC16F0120000017A6F88
:104298007AC060F0D6505EEC27F000017B6F3CD00E
:1042A8007B076CEC25F060C072F061C073F062C0EF
:1042B80074F063C075F06CEC25F060C076F061C0F6
:1042C80077F062C078F063C079F072C06AF073C0AA
:1042D8006BF074C06CF075C06DF000016A1F6B1F45
:1042E8006C1F6D1F6A2B000E6B236C236D23765198
:1042F8006A256E6F77516B216F6F78516C21706FE3
:1043080079516D21716F7151701106E1F50E6E5D75
:10431800010E6F59D8A0CFD77B51D8B41200C0D79F
:10432800000E00016E6F000E6F6F000E706F000EB2
:10433800716F6CC060F06DC061F0626B636BA00E52
:10434800646F0F0E656F000E666F000E676FC5EC29
:1043580025F060C06EF061C06FF062C070F063C09D
:1043680071F0560E00016E27FF0E6F23FF0E7023AB
:10437800FF0E712371BF1200715170116F110FE19F
:10438800C40E6E5DD8A012000AD000F0D90E00014C
:104398006E27FF0E6F23FF0E7023FF0E712371BF70
:1043A8001200715170116F11F0E16E05D8A0120062
:1043B800ECD7000E0001706F000E6F6FA4AA0CD02E
:1043C8006F516825D96E70516921DA6E12EC27F0A9
:1043D800DF6E00016F4B702BFF0E6A6FFF0E6B6F65
:1043E8006FC06CF070C06DF06A516C276B516D2313
:1043F8006C516825D96E6D516921DA6E0D0EDE1883
:10440800D8A4DCD770BF06D07051D8E1080E6F5D14
:10441800D8B0D4D7FF0E6A6FFF0E6B6F6FC06CF009
:1044280070C06DF06A516C276B516D236C51682513
:10443800D96E6D516921DA6E000EDF6E1200000E22
:104448000F6E000E106E000E116E000E126E0DC073
:1044580001F00EC002F0036A046AA00E056E0F0E8A
:10446800066E000E076E000E086EF1EC25F001C016
:104478000FF002C010F003C011F004C012F0560E85
:104488000F26FF0E1022FF0E1122FF0E122212BE5F
:1044980012001250111010100EE1C40E0F5CD8A0BB
:1044A800120009D000F0D90E0F26FF0E1022FF0EC1
:1044B8001122FF0E122212BE1200125011101010FB
:1044C800F1E10F04D8A01200EDD7000E81B4010E5F
:1044D80001015F6F5F51D8A418D05E51D8B415D0D0
:1044E80056BF06D0565111E1630E555DD8B00DD0B8
:1044F800554B562BAE0E00019E6F010E9F6F55C196
:10450800A0F056C1A1F0F2EC1FF05FC15EF1000E01
:1045180081B0010E01015D6F5D51D8A418D05C51C6
:10452800D8B415D058BF06D0585111E1630E575D65
:10453800D8B00DD0574B582BAE0E0001F96F010EB5
:10454800FA6F57C1FBF058C1FCF037EC1CF05DC1A5
:104558005CF11200780ED36EC0909B8C000EF26E48
:10456800550EA76EAA0EA76E0E01FF91040EE76FF7
:10457800130EF66F050ED76F550EA76EAA0EA76E0F
:10458800FF810F0148693F0E496FF19E9268936859
:10459800946895689668000E896E000E8A6E000E03
:1045A8008C6E000E8D6E938093849294929693965F
:1045B8008A86959E8C8E9382938A949E9398C00E39
:1045C800C76E210EC66E95968C86F19A94948B844C
:1045D800F28EF090F086B5EC23F01200040E010183
:1045E800616F020E626F56C063F157C064F1AEC0CE
:1045F800D9FFAFC0DAFFDF50656F000120EE01F090
:10460800AE51D926AF51DA22DF500101666F56C08C
:1046180067F157C068F1B9C169F1BAC16AF147C019
:104628006BF1472AAEC0D9FFAFC0DAFFDF50586E32
:10463800000120EE01F0AE51D926AF51DA22DF5049
:10464800596E56C0A4F057C0A5F058C0A6F059C07E
:10465800A7F0000EA86F27EC12F00009D8A41200EA
:1046680041961200000E0001626F060E626501D0CD
:1046780038D062510D0D0C0EF326000EF422A00E58
:10468800F324D96E020EF420DA6E0201DFAE26D0D2
:10469800000162510D0D0C0EF326000EF422A00E3F
:1046A800F324D96E020EF420DA6E0201DFA616D0CA
:1046B800000162510D0D020EF326000EF422A00E29
:1046C800F324D96E020EF420DA6E5850DE1806E193
:1046D8005950DE18D8A402D0625112000001622B92
:1046E800C4D7FF0E1200FF0E00016325656F666BCD
:1046F800FF0E662366BF120065516125D96E6651AB
:104708006221DA6EDF50646F64390F0B0F0B676F2D
:104718000A0E676105D06751300F76EC28F005D096
:1047280000016751370F76EC28F0000165516125CB
:10473800D96E66516221DA6EDF500F0B676F0A0E71
:10474800676105D06751300F76EC28F005D000017D
:104758006751370F76EC28F000016507D8A0660787
:10476800C9D7530E9512A49E000E736EF00E746E88
:10477800280E726E000E716EA38EF28EF28C010EF0
:1047880000016D6F2C0E6C6F94EC21F07C0E010112
:10479800426F810E436F000E446F000E0001606F80
:1047A800030EE9EC27F0000E00016D6FC80E6C6F68
:1047B80094EC21F07C0E0101426F510E436F080EFC
:1047C800446F000E0001606F030EE9EC27F0000E45
:1047D80000016D6FC80E6C6F94EC21F0120000019F
:1047E8006F6F2CD0000E0101BA6F000EB96F4868C8
:1047F800430E576E210E566EB90E0001656F010EFD
:10480800666F560E676F000E686FE0EC24F0418209
:10481800020E446E44C06EF000016E4701015B5108
:1048280000016E19F90B6E1901015B6F010E456EDF
:10483800010E1200000E1200000E120000016F514E
:10484800000AD8B4CFD7010AD8B4F4D7030AD8B429
:10485800F3D7000E1200000E0001666F000E656FA0
:104868001CD0000165516125636F66516221646F38
:1048780063C0F6FF64C0F7FFF86A0E0EF76403D052
:104888000800F55005D0F6CFE9FFF7CFEAFFEF5063
:1048980076EC28F00001654B662B65516125636F46
:1048A80066516221646F63C0F6FF64C0F7FFF86A5F
:1048B8000E0EF76403D00800F55005D0F6CFE9FFD7
:1048C800F7CFEAFFEF500009D8B41200CAD70E0E8E
:1048D800F66E510EF76E000EF86E01EEF4F010EE63
:1048E80009F00900F5CFEEFFE550E150FAE1200E9E
:1048F800F66E510EF76E000EF86E0900F5CF5BF0FC
:104908000900F5CF5CF003EE00F0AD0EEE6AE806A4
:10491800FDE102EE00F0FB0EEE6AE806FDE101EEB5
:1049280000F0BB0EEE6AE806FDE100EE2FF02C0E5B
:10493800EE6AE806FDE15D905D92000EF86E0001FA
:1049480021EF28F000019D6F5CC061F1020E0101AA
:10495800626F56C063F157C064F16569666956C0F5
:1049680067F157C068F1B9C169F1BAC16AF147C0C6
:104978006BF1472A000E3A6E3A8400019DB102D0CD
:104988003A9601D03A86010E3E6E56C03FF057C0A7
:1049980040F020EE3AF000EE7EF0060EDBCFEBFFA3
:1049A800E806FCE2610E0001856F010E866F4CC0BF
:1049B80087F038EC16F0120065C0D9FF66C0DAFF40
:1049C800DF50526E000120EE01F06551D926665184
:1049D800DA22DF50536E67C0D9FF68C0DAFFDF50B4
:1049E800546E20EE01F06751D9266851DA22DF5063
:1049F800556E52C062F0070E46EC27F053C062F0C5
:104A0800090E46EC27F054C062F0030E46EC27F07E
:104A180055C062F0050E46EC27F01200000EF0B605
:104A2800010E0001676FF0968A9662C064F063C059
:104A380065F0D89065336433D89065336433D89083
:104A48006533643364517F0B800905EC28F000015D
:104A58006239E846E00BE00B05EC28F07DEC28F025
:104A68000001666F8A8667B102D0F09601D0F086A1
:104A7800000166511200000EF0B6010E0001676FCA
:104A8800F0968A9662C065F063C066F0D890663387
:104A98006533D89066336533D8906633653365518E
:104AA8007F0B800905EC28F000016239E846E00B2D
:104AB800E00B100905EC28F00001645105EC28F022
:104AC8008A86000167B102D0F09601D0F086120004
:104AD8009D90000E0001686F000E696F000E656FF3
:104AE800CECF66F0CFCF67F0662909E16729D8A451
:104AF80006D0652B6505646F020E6465F1D79EA02C
:104B080004D0682B4D28D8B4692B4D506827010173
:104B18006051000169279D8066C060F067C061F040
:104B280068C062F069C063F012005EEC28F0000E05
:104B380000018D6F000EF7EC26F0EF0E0001616F9B
:104B4800FE0E626F2FEC24F0AE0E0001686F010EAE
:104B5800696FDDEC21F0B30E0001616FFF0E626F2B
:104B68002FEC24F0AE0E0001616F010E626F2FEC86
:104B780024F0F20E0001616FFF0E626F2FEC24F03B
:104B88001200000E0001686F000E696F000E6A6F58
:104B9800000E6B6F60A108D06451682765516923C6
:104BA80066516A2367516B23D89064376537663737
:104BB8006737D89063336233613360336051611172
:104BC80062116311D8A4E6D768C060F069C061F0CB
:104BD8006AC062F06BC063F01200000E096E000E2E
:104BE8000A6E000E0B6E000E0C6E01A008D0055068
:104BF800092606500A2207500B2208500C22D8908A
:104C08000536063607360836D890043203320232A3
:104C180001320150021003100410D8A4E6D709C0CD
:104C280001F00AC002F00BC003F00CC004F012003F
:104C3800000E0001666F000E656F62516311D8B4F3
:104C48001CD0010E646F04D0D89062376337642B90
:104C580063AFFAD7D890653766376251605D6351A4
:104C68006159D8A005D06251605F6351615B65816D
:104C7800D89063336233642FEDD765C060F066C0A7
:104C880061F01200000EF0B6010E086EF0968A96DA
:104C980003C005F004C006F0D89006320532D8905B
:104CA80006320532D8900632053205507F0B80094E
:104CB8002EEC28F00338E846E00BE00B2EEC28F049
:104CC80082EC28F0076E8A8608B002D0F09601D0F0
:104CD800F086075012000001696F0A0E000169652D
:104CE80003D01A0E696502D0000E120069C059F18E
:104CF800020E636F000E626F6939F00B500F0309E3
:104D0800646F3FEC25F0040E0001626F6D0E46ECF7
:104D180027F0000E0001626F6D0E46EC27F0010EC1
:104D280012007EC04EF17FC04FF180C050F1D6CF47
:104D38005AF10B0E0101596FE1EC19F0000E436EA8
:104D4800000E0001816F010E816501D012008151B2
:104D5800500D000EF324D96E020EF420DA6E000E08
:104D6800DF6E812BF0D7000169516A11D8B418D0D1
:104D7800010E6B6F04D0D89069376A376B2B6AAF16
:104D8800FAD76951675D6A516859D8A004D069514A
:104D9800675F6A51685BD8906A3369336B2FF1D7C4
:104DA80067C067F068C068F01200000E0001606F0D
:104DB800060E606501D015D060510D0D0C0EF3265E
:104DC800000EF422A00EF324D96E020EF420DA6E3F
:104DD8000201DFBE03D00001605112000001602B08
:104DE800E7D7FF0E12000001AC6F8E0E00016C6F4A
:104DF800000E6D6FC10E6E6FFF0E6F6FACC070F05E
:104E0800716B8DC072F0736B88EC0AF08E0E000126
:104E1800616F000E626F2FEC24F012009CA202D08A
:104E28009C989C88AACF67F00001675176EC28F01F
:104E3800080E00016719D8B466EC28F00D0E0001C1
:104E48006719D8A403D00A0E76EC28F00001675140
:104E580012000001626F000EF0B6010E0001646FCF
:104E6800F0968A96625105EC28F07DEC28F0000156
:104E7800636F8A8664B102D0F09601D0F086000193
:104E8800635112000001636F000EF0B6010E0001BD
:104E9800646FF0968A96635105EC28F00001625120
:104EA80005EC28F08A86000164B102D0F09601D0A2
:104EB800F08612000001616F080E0001626F000E9B
:104EC800636FD89061356335636FD89061376051EF
:104ED800635DD8A002D06051635F622FF2D763513F
:104EE80012000001616F030E0001616501D012001C
:104EF80061C04BF04BC060F0603B01015B510001A9
:104F08006019CF0B601901015B6F1200036E000E70
:104F1800F0B6010E056EF0968A9603502EEC28F036
:104F280082EC28F0046E8A8605B002D0F09601D093
:104F3800F08604501200000160516203F3CF64F060
:104F4800F4CF65F060516303F35065276151620344
:104F5800F350652764C060F065C061F01200046E0C
:104F6800000EF0B6010E056EF0968A9604502EECEF
:104F780028F003502EEC28F08A8605B002D0F0966F
:104F880001D0F086120000016A6F000E0001686F00
:104F98006A516FEC26F00009D8B404D06AC05AF000
:104FA800010E1200000E12000001626F000E0001D7
:104FB800616F3A0E626105D02F0E626502D0010E54
:104FC800616F61C060F0603112000001616F71B4FF
:104FD800FED7000E4F6E000E4E6E61C051F060C0DD
:104FE80050F0718012006EEC28F00009D8B412005D
:104FF80025C161F026C162F02FEC24F08CEC28F07A
:1050080012000001616F9E96C9CF60F0C69E61C014
:10501800C9FFC6BEFBD79EA6FED79E961200020EFB
:105028005B6012005B50500D000EF324D96E020E27
:10503800F420DA6E000EDF6E1200AEEC22F03BECCC
:1050480028F099EC25F0EEEC1DF0F7EC27F069EC70
:1050580022F0FBD7026E9E96C9CF01F0C69E02C011
:10506800C9FFC6BEFBD79EA6FED79E961200949C8B
:1050780095847E96000E7D6E330EAB6E240EA86E60
:10508800900E9C6E1200A4AE1200A49EA7EC20F015
:10509800000E0E6E050E0D6E23EC22F01200380E77
:1050A800CD6E9E909D80CD80000E4D6E000E01014C
:1050B800606F1200E00E0001616FFF0E626F2FEC4F
:1050C80024F01200E50E0001616FFF0E626F2FECF5
:1050D80024F012000BEC01F041A402D0010E1200E2
:1050E800000E12000001606FA8A2FED760C0A9FFE1
:1050F8001200000E05EC28F0C9501200000E2EEC2C
:0F51080028F0C9501200FF0011223344556621D0
:0A511800419413EC28F01200FF048C
:10FDF60000C0030000A005000060090000E010003C
:10FE060000E01F0000E03D0000E0790000E0F100A6
:10FE160000E0E10100E0C10300E0810700E0010F1E
:10FE260000E0011E00443D1B000DB4150001000852
:10FE360000400000020010008001000A006400E893
:10FE460003102701001000000100100D0A50736511
:10FE560075646F203A2025732C206D657373616776
:10FE6600652062726F616463617374203A20256451
:10FE760000436F6E6E6578696F6E20726575737379
:10FE86006965207375722050414E206578697374D8
:10FE9600616E740A0D004372656174696F6E206449
:10FEA60027756E206E6F75766561752050414E0A16
:10FEB6000D00457272657572203A2073656C656334
:10FEC60074696F6E2064652063616E616C004572B3
:10FED60072657572203A20636F6E6E6578696F6E13
:10FEE600207265667573656500536169736973731E
:10FEF600657A20766F7472652070736575646F20FD
:10FF06003A2000457272657572203A206372656107
:10FF160074696F6E207265667573656500566F74D9
:10FF26007265206164726573736520657374203A27
:10FF36002030780041647265737365206427656EAE
:10FF4600766F69203A2030780030313233343536D6
:10FF5600373839414243444546003031323334352F
:10FF66003637383961626364656600416472657369
:10FF76007365206C7565203A203078005258204D04
:10FF8600657373616765733A20253364005458209E
:10FF96004D657373616765733A20253364000D0AF6
:10FFA600456E766F69202564202E2E2E000D0A20C0
:10FFB600426F6E6A6F7572203A20001B5B25643BA8
:10FFC600256466001B5B25643B25647200286E75FC
:10FFD6006C6C29001B5B25646D001B5B324A001BA1
:10FFE6005B304B001B5B44001B5B7300210D0A005A
:01FFF600000A
:08FFF800ACF5DDFFFFF9FFF19C
:00000001FF
