:0400000084EF01F098
:100008005D82FACF18F0FBCF19F0E9CF1AF0EACFEA
:100018001BF0E1CF1CF0E2CF1DF0D9CF1EF0DACFF4
:100028001FF0F3CF20F0F4CF21F0F6CF22F0F7CF76
:1000380023F0F8CF24F0F5CF25F05DC026F05EC0A0
:1000480027F05FC028F060C029F0F0A62EEF00F07E
:1000580030EF00F03BEF01F0F0A035EF00F037EFA4
:1000680000F03BEF01F0F090620EF2EC35F02B6EF1
:100078002BA041EF00F043EF00F069EF00F0439050
:1000880043AC49EF00F04BEF00F04EEF00F0439C1B
:100098004EEF00F0000E0101B66F000EB56F43A2DF
:1000A80058EF00F05AEF00F069EF00F0480EF2EC5C
:1000B80035F02A6E2AA063EF00F065EF00F066EFD6
:1000C80000F04384439269EF00F02BA66EEF00F036
:1000D80070EF00F02BEF01F02D68000E2E6E010E70
:1000E8002E6479EF00F07BEF00F07FEF00F09EEFD9
:1000F80000F09EEF00F02E50500D000EF324D96E44
:10010800030EF420DA6EDF50D8A48DEF00F08FEFE5
:1001180000F093EF00F02EC02DF09EEF00F02E2A95
:10012800010E2E649AEF00F09CEF00F07FEF00F0D4
:100138009EEF00F0020E2D60A4EF00F0A6EF00F095
:1001480022EF01F0040E036E730E5EEC36F02D50B4
:10015800500D000EF324D96E030EF420DA6E030E50
:10016800046E000E036EB2EC34F0020FDF6E2D50F9
:10017800500D000EF324D96E030EF420DA6E4F0EE4
:10018800DF60C9EF00F0CBEF00F016EF01F0438A13
:10019800010E2E6EECEF00F02D50500D000E136E78
:1001A800030E146EF3501326F45014222E50132409
:1001B800D96E000E1420DA6E000E2E24036E046A27
:1001C800030E0422B2EC34F0DF6E2E2AECEF00F0BE
:1001D8002E50136E146A2D50500D000EF324D96E54
:1001E800030EF420DA6EDF50156E166A020E15261D
:1001F800000E16221350155C1650800A176E145004
:10020800800A1758D8B00BEF01F00DEF01F0D0EFCE
:1002180000F00FEF01F0010E036E1B0E5EEC36F0DE
:100228001BEF01F0010E036E1B0E5EEC36F0000EA4
:10023800036E730E5EEC36F02BEF01F0010E036EC9
:100248001B0E5EEC36F02BEF01F02BEF01F02BA824
:1002580030EF01F032EF01F03BEF01F0800E036E5A
:10026800590E5EEC36F03BEF01F03BEF01F09EA03B
:1002780040EF01F042EF01F05AEF01F09DA047EF87
:1002880001F049EF01F05AEF01F09E904E2A4E50CE
:10029800D8A451EF01F053EF01F05AEF01F04D2AC5
:1002A8005AEF01F05AEF01F05AEF01F072EC36F014
:1002B8005EEF01F029C060F028C05FF027C05EF053
:1002C80026C05DF025C0F5FF24C0F8FF23C0F7FF66
:1002D80022C0F6FF21C0F4FF20C0F3FF1FC0DAFFE1
:1002E8001EC0D9FF1DC0E2FF1CC0E1FF1BC0EAFF12
:1002F8001AC0E9FF19C0FBFF18C0FAFF5D92110090
:1003080031EF30F05BEC15F00009D8B48EEF01F056
:1003180090EF01F06AEF0DF041A495EF01F097EF2F
:1003280001F09BEF01F098EF0EF098EF0EF0000E41
:1003380001019C6F2FB4A3EF01F0A8EF01F00001B9
:10034800B06BB02BAAEF01F00001B06B01019C511A
:100358000001B019FC0BB01901019C6F2FA602D047
:100368009C8702D001019C972F50030BE806D8B454
:10037800C0EF01F0C5EF01F00001B06BB02BC7EF83
:1003880001F00001B06BB03BB04701019C51000186
:10039800B019DF0BB01901019C6F2FAE02D09C8DF4
:1003A80002D001019C9D2FAEDCEF01F0DEEF01F0E1
:1003B800EAEF01F037B002D09C9F02D001019C8F78
:1003C80030C09FF131C0A0F1EAEF01F038C09DF1D3
:1003D80039C09EF136C0A5F135C0A4F141944DEF66
:1003E8000DF0F7EF01F00A0E3460FDEF01F0FFEFBA
:1003F80001F003EF02F05DEF0DF05DEF0DF020EE80
:1004080002F03250D9263350DA22DF500001CD6F86
:1004180020EE03F03250D9263350DA22DF50CE6F67
:1004280020EE04F03250D9263350DA22DF50D06F54
:1004380020EE05F03250D9263350DA22DF50D16F42
:1004480020EE06F03250D9263350DA22DF50D26F30
:1004580020EE07F03250D9263350DA22DF50D36F1E
:1004680020EE08F03250D9263350DA22DF50D56F0B
:1004780020EE09F03250D9263350DA22DF50D66FF9
:10048800000E01019C6F2FA602D09C8702D00101AB
:100498009C979C51030B0009D8A455EF02F057EF25
:1004A80002F064EF02F00001D02906E1D129D8A4B6
:1004B80060EF02F062EF02F0D1EF03F064EF02F0B8
:1004C8000101F9510001D51909E10101FA510001B1
:1004D800D619D8A472EF02F074EF02F084EF02F09C
:1004E8005750D21907E15850D319D8A47EEF02F01B
:1004F80080EF02F084EF02F05DEF0DF05DEF0DF09C
:1005080032C0D9FF33C0DAFF010EDF648EEF02F08C
:1005180090EF02F0DDEF02F032C0D9FF33C0DAFF0E
:10052800DF06000E0101C36F000E0001D86FB5EFA2
:1005380002F0D851010DF3503224D96EF450332013
:10054800DA6E0101C351010DC40EF324E16E010EF0
:10055800F420E26EDFCFE7FFC32B0001D82BB5EF05
:1005680002F03450D85DD8A0BCEF02F0BEEF02F024
:100578009DEF02F02FC03AF057C03FF058C040F04E
:1005880037C03EF0140EF5EC2DF020EE3AF000EEF8
:100598007EF0060EDBCFEBFFE806FCE2C40E00019E
:1005A800856F010E866FC3C187F0B2EC1CF0DDEFDA
:1005B80002F0000E0001D86F030ED865E6EF02F0D6
:1005C800E8EF02F0ECEF02F03EEF03F03EEF03F04D
:1005D800D851080D030EF326000EF422000EF32462
:1005E800D96E020EF420DA6EDF50D8B4FEEF02F0B6
:1005F80000EF03F033EF03F0D851080D000EF32499
:10060800D96E020EF420DA6ED551DE1807E1D65104
:10061800DE18D8A412EF03F014EF03F033EF03F061
:1006280020EE0AF03250D9263350DA22D851080D7C
:10063800020EF326000EF422000EF324E16E020EE1
:10064800F420E26EDE50E618D8A42DEF03F02FEF69
:1006580003F033EF03F03EEF03F03EEF03F0D82B47
:10066800030ED8653AEF03F03CEF03F0ECEF02F02D
:100678003EEF03F0040ED86144EF03F046EF03F0B9
:100688004AEF03F05DEF0DF05DEF0DF0000ED86F4F
:10069800030ED86552EF03F054EF03F058EF03F060
:1006A8007BEF03F07BEF03F0D851080D030EF32620
:1006B800000EF422000EF324D96E020EF420DA6E36
:1006C800DF50D8A46AEF03F06CEF03F070EF03F08B
:1006D8007BEF03F07BEF03F0D82B030ED86577EFA1
:1006E80003F079EF03F058EF03F07BEF03F0040E0B
:1006F800D86181EF03F083EF03F0CAEF03F0D8511C
:10070800080D000EF324D96E020EF420DA6ED5C05F
:10071800DEFFD6C0DDFF20EE0AF03250D926335076
:10072800DA22D851080D020EF326000EF422000E2C
:10073800F324E16E020EF420E26EDFCFE7FFD8511A
:10074800080D030EF326000EF422000EF324D96ED2
:10075800020EF420DA6E030EDF6E1AEC31F000019F
:10076800D851080D040EF326000EF422000EF324CF
:10077800D96E020EF420DA6E60C0DEFF61C0DEFFC3
:1007880062C0DEFF63C0DEFFCAEF03F001019C51C7
:10079800FC0B01099C6F5FEF04F057500001CD1965
:1007A80007E15850CE19D8A4DCEF03F0DEEF03F0D0
:1007B8003DEF07F00101F9510001D01909E10101EC
:1007C800FA510001D119D8A4ECEF03F0EEEF03F0D1
:1007D8003DEF07F020EE01F03250D9263350DA22EF
:1007E800DFA4F9EF03F0FBEF03F05FEF04F05CC068
:1007F800C4F1020E0101C56FD2C0C6F1D3C0C7F162
:10080800D5C0C8F1D6C0C9F157C0CAF158C0CBF19C
:10081800F9C1CCF1FAC1CDF120EE0AF03250D92657
:100828003350DA22DF50CE6F000ECF6F300ED06F0C
:100838000D0EC36FFA510001D619D8B426EF04F093
:1008480028EF04F036EF04F0D2C0A4F0D3C0A5F02E
:10085800D5C0A6F0D6C0A7F0000EA86FC8EC19F056
:1008680059EF04F0000E3A6E3A8A010E3D6E010E01
:100878003E6ED50E3B6E000E3C6ED2C03FF0D3C02C
:1008880040F020EE3AF000EE7EF0060EDBCFEBFFF4
:10089800E806FCE2C40E0001856F010E866FC3C135
:1008A80087F0B2EC1CF059EF04F001019C855FEF72
:1008B80004F05FEF04F020EE0BF03250D9263350ED
:1008C800DA22DF50D8A46BEF04F06DEF04F0EEEFFE
:1008D80006F020EE0CF03250D9263350DA22300ED2
:1008E800DE18D8B47AEF04F07CEF04F0C8EF06F015
:1008F800B5EF06F0B5EF06F00201B4B386EF04F0E9
:1009080088EF04F0D7EF04F01AEC31F060C0CAF2B7
:1009180061C0CBF262C0CCF263C0CDF220EE08F029
:100928003250D9263350DA22DF500201B66F20EE5A
:1009380009F03250D9263350DA22DF50B76F000E53
:100948000001D76F070ED765ACEF04F0AEEF04F0E7
:10095800B2EF04F0D2EF04F0D2EF04F0D751B06F49
:10096800B16B0D0EB027000EB123B0513224D96EF1
:10097800B1513320DA6ED751010DB80EF324E16E70
:10098800020EF420E26EDFCFE7FFD72B070ED76504
:10099800D0EF04F0D2EF04F0B2EF04F00201B48318
:1009A800B4915DEF0DF020EE08F03250D9263350A7
:1009B800DA22B651DE18D8A4E4EF04F0E6EF04F02A
:1009C800F9EF04F020EE09F03250D9263350DA223C
:1009D800B751DE18D8A4F3EF04F0F5EF04F0F9EFFF
:1009E80004F05DEF0DF05DEF0DF0B651B711D8A42E
:1009F80000EF05F002EF05F082EF05F0000E0001B0
:100A0800D76F070ED7650BEF05F00DEF05F011EF67
:100A180005F045EF05F045EF05F0D751B06FB16B24
:100A28000D0EB027000EB123B0513224D96EB1514A
:100A38003320DA6ED751010DC20EF324E16E020E97
:100A4800F420E26EDFCFE7FFD751010DC20EF32489
:100A5800D96E020EF420DA6ED751010D300EF32450
:100A6800E16E020EF420E26EDFCFE7FFD72B070E10
:100A7800D76541EF05F043EF05F011EF05F045EFBD
:100A880005F020EE08F03250D9263350DA22DF5034
:100A98000201C06F20EE09F03250D9263350DA2215
:100AA800DF50C16FC0C259F0C1C25AF057C0F7F148
:100AB80058C0F8F18DEC2DF00201B56FB529D8A416
:100AC80068EF05F06AEF05F07EEF05F08D0E496ED0
:100AD80059AE71EF05F073EF05F076EF05F0499028
:100AE80076EF05F0DCEC2AF00201B56F7EEF05F039
:100AF8007EEF05F0B483B4815DEF0DF00B0E0101BC
:100B0800C36FC351010DC40EF324D96E010EF42036
:100B1800DA6E000EDF6EC32BC351010DC40EF32431
:100B2800D96E010EF420DA6E110EDF6EC32B000EA3
:100B38000001D76F070ED765A4EF05F0A6EF05F003
:100B4800AAEF05F0E1EF05F0E1EF05F0D751B06F3E
:100B5800B16B0D0EB027000EB123B0513224D96EFF
:100B6800B1513320DA6ED751010DC20EF324E16E74
:100B7800020EF420E26EDFCFE7FFD751010DC20E5F
:100B8800F324D96E020EF420DA6E0101C351010D6F
:100B9800C40EF324E16E010EF420E26EDFCFE7FF0E
:100BA800C32B0001D72B070ED765DDEF05F0DFEF6C
:100BB80005F0AAEF05F0E1EF05F020EE08F032505D
:100BC800D9263350DA22DF500201C06F20EE09F037
:100BD8003250D9263350DA22DF50C16F0101C35198
:100BE800010DC40EF324D96E010EF420DA6EC0C2D2
:100BF800DFFFC32BC351010DC40EF324D96E010EC0
:100C0800F420DA6EC1C2DFFFC32BB60E0001AE6F4F
:100C1800020EAF6FCFEC30F00201B483B4815DEF08
:100C28000DF05DEF0DF05DEF0DF05DEF0DF0000ED6
:100C38000001CC6F070ECC6524EF06F026EF06F016
:100C48002AEF06F04CEF06F04CEF06F0CC51B06FEF
:100C5800B16B0D0EB027000EB123B0513224D96EFE
:100C6800B1513320DA6ECC51010D300EF324E16E10
:100C7800020EF420E26EDFCFE7FFCC2B070ECC6527
:100C880048EF06F04AEF06F02AEF06F04CEF06F0C0
:100C98008D0E496E20EE15F03250D9263350DA22E7
:100CA800DFAE59EF06F05BEF06F05EEF06F0499015
:100CB8005EEF06F020EE15F03250D9263350DA22D6
:100CC800DF50596E20EE16F03250D9263350DA2212
:100CD800DF505A6E57C0F7F158C0F8F18DEC2DF07F
:100CE8000201B56FB529D8B47CEF06F07EEF06F0A7
:100CF80090EF06F0B5510D0D0C0EF326000EF42200
:100D0800380EF324D96E020EF420DA6EDF50496EE5
:100D1800498449869EEF06F08D0E496E59AE97EFCD
:100D280006F099EF06F09EEF06F049909EEF06F068
:100D38009EEF06F0DCEC2AF00201B56FB529D8B4B5
:100D4800A8EF06F0AAEF06F0ADEF06F0B481AEEF1B
:100D580006F0B491B4935DEF0DF05DEF0DF05DEF2B
:100D68000DF020EE0CF03250D9263350DA22DF5045
:100D7800100AD8B480EF04F0010AD8B41BEF06F0CB
:100D88005DEF0DF05DEF0DF020EE0AF03250D92640
:100D98003350DA220101FB51DE18D8A4D6EF06F051
:100DA800D8EF06F05DEF0DF0B7510001D51909E154
:100DB8000101B8510001D619D8A4E5EF06F0E7EF14
:100DC80006F05DEF0DF041965DEF0DF05DEF0DF073
:100DD8005DEF0DF03450F50F0101A36F0B0E3224B7
:100DE800A16F000E3320A26FD2C09DF1D3C09EF137
:100DF80020EE08F03250D9263350DA22DE28D8A463
:100E080008EF07F00AEF07F024EF07F020EE09F0EB
:100E18003250D9263350DA22DE28D8A416EF07F04C
:100E280018EF07F024EF07F037B002D09C9F02D0EC
:100E380001019C8F30C09FF131C0A0F12DEF07F068
:100E48009C8F080E32249F6F000E3320A06F2DEF69
:100E580007F09C8DA351D8B434EF07F036EF07F0B4
:100E68005DEF0DF041845DEF0DF05DEF0DF05DEF8E
:100E78000DF032C0D9FF33C0DAFFDF50D8B447EFE6
:100E880007F049EF07F05DEF0DF032C0D9FF33C02E
:100E9800DAFFDF06000E0101C36F000E0001D86FF4
:100EA8006EEF07F0D851010DF3503224D96EF4508B
:100EB8003320DA6E0101C351010DC40EF324E16E33
:100EC800010EF420E26EDFCFE7FFC32B0001D82B21
:100ED8006EEF07F03450D85DD8A075EF07F077EFC4
:100EE80007F056EF07F079EF07F00101FA5100011A
:100EF800D119D8A482EF07F084EF07F0B9EF07F013
:100F08000101CF51D8A48BEF07F08DEF07F0B9EFAF
:100F180007F0300ED019D8A494EF07F096EF07F039
:100F2800B9EF07F0000E3A6E3A8A010E3D6E010ED7
:100F38003E6ED00E3B6E000E3C6ECDC03FF0CEC074
:100F480040F020EE3AF000EE7EF0060EDBCFEBFF2D
:100F5800E806FCE2C40E0001856F010E866FC3C16E
:100F680087F0B2EC1CF05DEF0DF0CDC0A4F0CEC060
:100F7800A5F0D0C0A6F0D1C0A7F0000E2FB6010E84
:100F88000001A86FC8EC19F05DEF0DF05DEF0DF0F2
:100F98005DEF0DF05DEF0DF0000E0001CA6FCA5154
:100FA800B06FB16B040EB027000EB123B0513224DC
:100FB800D96EB1513320DA6E4D0EDE18D8B4E7EF92
:100FC80007F0E9EF07F0EDEF07F05DEF0DF05DEFEB
:100FD8000DF020EE01F03050D9263150DA22DF50E2
:100FE800C56FC5C0B0F0010EB16FB02BFEEF07F0B2
:100FF800D890B137B02FFCEF07F00001B151BE6FA8
:1010080030C0D9FF31C0DAFFDF50D8A40EEF08F0A6
:1010180010EF08F014EF08F0BE51451214EF08F075
:10102800CA51B06FB16B060EB027000EB123B05194
:101038003224D96EB1513320DA6EC551010D280E14
:10104800F324E16E020EF420E26EDFCFE7FF41A049
:1010580030EF08F032EF08F05DEF0DF038C0F7F12F
:1010680039C0F8F130C0D9FF31C0DAFFDF50596E0E
:1010780020EE01F03050D9263150DA22DF505A6E76
:10108800CA51010DF3503224D96EF4503320DA6E70
:10109800DE28D8A452EF08F054EF08F05DEF0DF009
:1010A800CA51B06FB16B010EB027000EB123B05119
:1010B8003224D96EB1513320DA6EDF50CB6F0A0E6D
:1010C8004A6069EF08F06BEF08F05DEF0DF0CB397F
:1010D800030BB06F020EB06174EF08F076EF08F002
:1010E8005DEF0DF04A500E0D000EF324D96E040E7C
:1010F800F420DA6E5BC0DFFF4A500E0D0B0EF326AC
:10110800000EF422000EF324D96E040EF420DA6ED9
:10111800A4C1DFFF4A500E0D0C0EF326000EF42278
:10112800000EF324D96E040EF420DA6EA5C1DFFF99
:101138004A500E0D090EF326000EF422000EF32479
:10114800D96E040EF420DA6EF7C1DEFFF8C1DDFFB8
:101158004A500E0D0D0EF326000EF422000EF32455
:10116800D96E040EF420DA6E000EDF6E4A500E0DB2
:101178000D0EF326000EF422000EF324D96E040E91
:10118800F420DA6E0401DF8C0001CB31030BB06F61
:101198004A500E0D0D0EF326000EF422000EF32415
:1011A800D96E040EF420DA6E0401DF500001B01984
:1011B800FC0BB0190401DF6E0001CBA7E6EF08F0C5
:1011C800E8EF08F0F8EF08F04A500E0D0D0EF32680
:1011D800000EF422000EF324D96E040EF420DA6E09
:1011E8000401DF86F8EF08F00001CB39030BB06F7C
:1011F800020EB06102EF09F004EF09F014EF09F0F4
:101208004A500E0D0D0EF326000EF422000EF324A4
:10121800D96E040EF420DA6E0401DF8A14EF09F0A7
:101228009FC1D9FFA0C1DAFF4A500E0D010EF32667
:10123800000EF422000EF324E16E040EF420E26E98
:10124800DFCFE7FF010120EE01F09F51D926A05121
:10125800DA224A500E0D020EF326000EF422000E7A
:10126800F324E16E040EF420E26EDFCFE7FF4A506C
:101278000E0D0D0EF326000EF422000EF324D96E87
:10128800040EF420DA6E0401DF8E4A2A5DEF0DF0B9
:101298005DEF0DF05DEF0DF05DEF0DF030EF0DF04F
:1012A80030EF0DF0000E0001C06F010E4C645FEFCF
:1012B80009F061EF09F065EF09F05DEF0DF05DEF02
:1012C8000DF0000ED86F070ED8656DEF09F06FEFBF
:1012D80009F073EF09F090EF09F090EF09F0D85199
:1012E800010DF3503024D96EF4503120DA6ED85104
:1012F800010D300EF324E16E020EF420E26EDFCF12
:10130800E7FFD82B070ED8658CEF09F08EEF09F0B0
:1013180073EF09F090EF09F01DEC2CF00001D46F89
:10132800D429D8A49AEF09F09CEF09F0C4EF09F08A
:101338004C50D8B4A2EF09F0A4EF09F0A8EF09F0D7
:101348005DEF0DF05DEF0DF0B70E496E57C0F7F188
:1013580058C0F8F1DCEC2AF00001D46FD429D8A4E5
:10136800B8EF09F0BAEF09F0EDEF09F0010EC06F20
:10137800FF0E5A6EFE0E596EA7EF0AF0EDEF09F058
:10138800D4510D0D0C0EF326000EF422380EF32462
:10139800D96E020EF420DA6E0201DFA6D6EF09F04C
:1013A800D8EF09F0EDEF09F00001D4510D0D020E50
:1013B800F326000EF422380EF324D96E020EF42020
:1013C800DA6EDECF59F0DDCF5AF0A7EF0AF0EDEF75
:1013D80009F00001D429D8B4F4EF09F0F6EF09F0C8
:1013E800A7EF0AF0D429596EFAC15AF057C0F7F19D
:1013F80058C0F8F1020E4418D8A405EF0AF007EF18
:101408000AF069EF0AF020EE01F03250D926335085
:10141800DA22DFAC12EF0AF014EF0AF069EF0AF0F3
:1014280059C0BCF05AC0BDF0000E596E010ECF6F06
:10143800070ECF6522EF0AF024EF0AF028EF0AF032
:1014480056EF0AF056EF0AF0CFC05AF08DEC2DF0A7
:101458000001BF6FBF29D8A434EF0AF036EF0AF0B5
:101468004BEF0AF0000E596ECFC05AF0CFC0B0F063
:10147800010EB16FB02B43EF0AF0D890B137B02FFF
:1014880041EF0AF00001B151451256EF0AF0CF2B97
:10149800070ECF6552EF0AF054EF0AF028EF0AF072
:1014A80056EF0AF0080ECF19D8A45DEF0AF05FEFE7
:1014B8000AF069EF0AF0BCC059F0BDC05AF069EFF4
:1014C8000AF069EF0AF069EF0AF0BF0E496E20EEE4
:1014D80001F03250D9263350DA22DFB076EF0AF025
:1014E80078EF0AF07CEF0AF04990598E7CEF0AF009
:1014F800DCEC2AF00001D46FD4510D0D0C0EF3264C
:10150800000EF422380EF324D96E020EF420DA6E9F
:101518000201DF88A7EF0AF00001D4510D0D0C0E6F
:10152800F326000EF422380EF324D96E020EF420AE
:10153800DA6E000EDF6E020EC06FA7EF0AF0A7EF9B
:101548000AF0A7EF0AF0020E0101C46F59C0C5F1F5
:101558005AC0C6F1C0C0C7F1040EC36F570E0001D0
:101568009D6F000E9E6FD4510D0D040EF326000ED4
:10157800F422380EF3249F6F020EF420A06F010EA0
:10158800A16F000EA26F22EC2DF05DEF0DF020EEA2
:1015980003F03250D9263350DA22DF50D8A4D7EFDF
:1015A8000AF0D9EF0AF074EF0BF020EE01F0325098
:1015B800D9263350DA22DF500101F96F20EE02F00C
:1015C8003250D9263350DA22DF50FA6FF951D8A4B5
:1015D800F0EF0AF0F2EF0AF010EF0BF0010E446E94
:1015E80044C0B0F00001B0474B50B019F90BB01926
:1015F8004B6EFAC1B0F0070EB017010EB16FB02BE9
:1016080008EF0BF0D890B137B02F06EF0BF00001C0
:10161800B12945121DEF0BF0000E446E44C0B0F026
:101628000001B0474B50B019F90BB0194B6E1DEFC4
:101638000BF0F90E656F010E666F570E676F000E9F
:10164800686FC5EC33F04182BF0E496E000E000191
:10165800D86F070ED86533EF0BF035EF0BF039EF85
:101668000BF056EF0BF056EF0BF0D851010DF3507D
:101678003024D96EF4503120DA6ED851010D300E75
:10168800F324E16E020EF420E26EDFCFE7FFD82BE1
:10169800070ED86552EF0BF054EF0BF039EF0BF053
:1016A80056EF0BF00101F951D8A45DEF0BF05FEF95
:1016B8000BF065EF0BF0000E5A6E000E596E6BEFD3
:1016C8000BF0FAC15AF0000E596E6BEF0BF057C0D1
:1016D800F7F158C0F8F1DCEC2AF0486E5DEF0DF038
:1016E80048685768586859685A68590E0001656F04
:1016F800000E666F570E676F000E686FC5EC33F00B
:101708005DEF0DF05DEF0DF03750D8B48EEF0BF0B4
:1017180090EF0BF0B0EF0BF030C0D9FF31C0DAFF1B
:10172800DF50596E20EE01F03050D9263150DA22C0
:10173800DF505A6E8DEC2DF00001C86FC829D8A46F
:10174800A8EF0BF0AAEF0BF0EEEF0BF05DEF0DF04A
:101758005DEF0DF0EEEF0BF0000E0001D86F070EF5
:10176800D865B9EF0BF0BBEF0BF0BFEF0BF0DCEF78
:101778000BF0DCEF0BF0D851010DF3503024D96E8B
:10178800F4503120DA6ED851010D300EF324E16E99
:10179800020EF420E26EDFCFE7FFD82B070ED865E4
:1017A800D8EF0BF0DAEF0BF0BFEF0BF0DCEF0BF03C
:1017B8001DEC2CF00001C86FC829D8A4E6EF0BF087
:1017C800E8EF0BF0EEEF0BF05DEF0DF05DEF0DF0D5
:1017D800EEEF0BF0C8510D0D0C0EF326000EF4229F
:1017E800380EF324D96E020EF420DA6E0201DFAA55
:1017F80000EF0CF002EF0CF05DEF0DF04850000127
:10180800C819D8B40AEF0CF00CEF0CF01CEF0CF070
:10181800C8510D0D0C0EF326000EF422380EF324D9
:10182800D96E020EF420DA6E000EDF6E5DEF0DF059
:10183800000ED86F060ED86524EF0CF026EF0CF0DA
:101848002AEF0CF0DBEF0CF0DBEF0CF0D8510D0DAC
:101858000C0EF326000EF422380EF324D96E020E75
:10186800F420DA6E0201DFAE3CEF0CF03EEF0CF034
:10187800C3EF0CF00001D8510D0D0C0EF326000E2D
:10188800F422380EF324D96E020EF420DA6E020127
:10189800DFAA51EF0CF053EF0CF0C3EF0CF04850F7
:1018A8000001D819D8B45BEF0CF05DEF0CF0C3EF72
:1018B8000CF0000E0101C36FC351010DC40EF324D7
:1018C800D96E010EF420DA6E030EDF6EC32B000E04
:1018D8003A6E3A8A3A50FC0B01093A6E010E3D6E97
:1018E800010E3E6E0001D8510D0D380EF324D96E4D
:1018F800020EF420DA6EDECF3FF0DDCF40F0D85193
:101908000D0D020EF326000EF422380EF3243B6E62
:10191800020EF4203C6E20EE3AF000EE7EF0060E49
:10192800DBCFEBFFE806FCE2C40E856F010E866F85
:10193800C3C187F0B2EC1CF0000E0001C76F000EA7
:10194800C66FC6290F0EC759D8A0ADEF0CF0AFEF80
:101958000CF0B3EF0CF0C3EF0CF0C3EF0CF0C64B78
:10196800C72BC6290F0EC759D8A0BDEF0CF0BFEF83
:101978000CF0B3EF0CF0C3EF0CF0C3EF0CF0000168
:10198800D8510D0D0C0EF326000EF422380EF32458
:10199800D96E020EF420DA6E000EDF6ED82B060E1A
:1019A800D865D9EF0CF0DBEF0CF02AEF0CF04868A3
:1019B8000101F969FA6957685868F90E0001656FFD
:1019C800010E666F570E676F000E686FC5EC33F037
:1019D80041925DEF0DF05DEF0DF05DEF0DF0020E41
:1019E8004C64F9EF0CF0FBEF0CF0FFEF0CF05DEF3F
:1019F8000DF05DEF0DF041A204EF0DF006EF0DF0D4
:101A08005DEF0DF020EE01F03250D9263350DA2286
:101A18005B50DE18D8B413EF0DF015EF0DF019EF89
:101A28000DF05DEF0DF05DEF0DF04450D8B41FEFF1
:101A38000DF021EF0DF05DEF0DF0140EF5EC2DF02B
:101A480018EC2FF05DEF0DF05DEF0DF05DEF0DF090
:101A58005DEF0DF05DEF0DF032C0D9FF33C0DAFF56
:101A6800DF50010AD8B456EF09F0030AD8B4CBEF17
:101A78000AF0010AD8B488EF0BF0040AD8B4F3EFDF
:101A88000CF05DEF0DF05DEF0DF05DEF0DF05DEF2B
:101A98000DF02F50030B000AD8B4F7EF01F0010A3C
:101AA800D8B430EF0DF0020AD8B4D0EF07F05DEFEC
:101AB8000DF041B462EF0DF064EF0DF06AEF0DF038
:101AC8001FEC36F06AEF0DF06AEF0DF01AEC31F00A
:101AD80060C0C1F061C0C2F062C0C3F063C0C4F0AE
:101AE800000E0001D86F030ED8657DEF0DF07FEF73
:101AF8000DF083EF0DF0EAEF0DF0EAEF0DF0D8519D
:101B0800080D030EF326000EF422000EF324D96EFE
:101B1800020EF420DA6EDF50D8B495EF0DF097EF8F
:101B28000DF0E1EF0DF0D851080D040EF326000E6C
:101B3800F422000EF324D96E020EF420DA6EDECF02
:101B4800B0F0DECFB1F0DECFB2F0DECFB3F0B01F31
:101B5800B11FB21FB31FB02B000EB123B223B323A2
:101B6800C151B025B46FC251B121B56FC351B22173
:101B7800B66FC451B321B76FB7510DE1210EB45DF3
:101B8800A10EB559070EB659D8A0CDEF0DF0CFEF7D
:101B98000DF0E1EF0DF0D851080D030EF326000EFD
:101BA800F422000EF324D96E020EF420DA6E000E31
:101BB800DF6EE1EF0DF0E1EF0DF0D82B030ED865E5
:101BC800E8EF0DF0EAEF0DF083EF0DF00201B4A39A
:101BD800F0EF0DF0F2EF0DF098EF0EF0B4A1F7EF83
:101BE8000DF0F9EF0DF063EF0EF00B0E0101C36F6E
:101BF800C351010DC40EF324D96E010EF420DA6E20
:101C0800000EDF6EC32BC351010DC40EF324D96E31
:101C1800010EF420DA6E110EDF6EC32B000E0001E8
:101C2800C96F070EC9651BEF0EF01DEF0EF021EF0F
:101C38000EF041EF0EF041EF0EF0C951010DB80E54
:101C4800F324D96E020EF420DA6E0101C351010D9E
:101C5800C40EF324E16E010EF420E26EDFCFE7FF3D
:101C6800C32B0001C92B070EC9653DEF0EF03FEFEE
:101C78000EF021EF0EF041EF0EF00101C351010DFE
:101C8800C40EF324D96E010EF420DA6EB6C2DFFF5B
:101C9800C32BC351010DC40EF324D96E010EF420D9
:101CA800DA6EB7C2DFFFC32BC00E0001AE6F020EA3
:101CB800AF6FCFEC30F00201B49398EF0EF0CAC2C8
:101CC800B0F0CBC2B1F0CCC2B2F0CDC2B3F00001DB
:101CD800B01FB11FB21FB31FB02B000EB123B22328
:101CE800B323C151B025B86FC251B121B96FC351E7
:101CF800B221BA6FC451B321BB6FBB510DE1610E64
:101D0800B85DE30EB959160EBA59D8A08EEF0EF089
:101D180090EF0EF098EF0EF00201B49398EF0EF0EA
:101D280098EF0EF098EF0EF01200700E0001836F1E
:101D3800000E846F3DEF15F0250E8A19D8B4A7EF71
:101D48000EF0A9EF0EF0B3EF0EF06CC0D9FF6DC026
:101D5800DAFF8AC0DFFF6C4B6D2B3DEF15F0000EEC
:101D6800896F000E886F000E8C6F000E8B6FD9EF95
:101D78000EF0D9EF0EF000018B876E4B6F2BD9EF69
:101D88000EF000018B816E4B6F2BD9EF0EF0000126
:101D98008C876E4B6F2BD9EF0EF000018B856E4B45
:101DA8006F2BD9EF0EF0F5EF0EF06EC0F6FF6FC097
:101DB800F7FF0800F550200AD8B4C5EF0EF0030A63
:101DC800D8B4CBEF0EF00E0AD8B4BFEF0EF01D0A50
:101DD800D8B4D1EF0EF0F5EF0EF0F5EF0EF0D9EF25
:101DE8000EF000018BA7FBEF0EF0FDEF0EF000EFF9
:101DF8000FF08B9500EF0FF06EC0F6FF6FC0F7FF86
:101E08000800F55002EC35F0D8A00DEF0FF00FEFF9
:101E18000FF04FEF0FF0000E0001896F000E886F72
:101E280016EF0FF088C060F089C061F0000E000165
:101E3800636F0A0E626F09EC36F060C088F061C00B
:101E480089F0D00E0001746FFF0E756F6EC0F6FF3B
:101E58006FC0F7FF0800F550766F776B74517627DF
:101E68007551772376518827775189236E4B6F2BCD
:101E78006EC0F6FF6FC0F7FF0800F55002EC35F0B2
:101E8800D8B049EF0FF04BEF0FF016EF0FF070EFEF
:101E98000FF070EF0FF06EC0F6FF6FC0F7FF08008D
:101EA800F5502A0AD8A45BEF0FF05DEF0FF070EF42
:101EB8000FF083C0D9FF84C0DAFFDECF88F0DDCF12
:101EC80089F0020E00018327000E84236E4B6F2BCE
:101ED80070EF0FF070EF0FF06EC0F6FF6FC0F7FFF6
:101EE8000800F5502E0AD8A47CEF0FF07EEF0FF013
:101EF800C9EF0FF000018C8D6E4B6F2B6EC0F6FF93
:101F08006FC0F7FF0800F5502A0AD8A48EEF0FF02B
:101F180090EF0FF09EEF0FF083C0D9FF84C0DAFF77
:101F2800DF50876F020E8327000E84236E4B6F2BC2
:101F3800F1EF10F0000E876FB4EF0FF06EC0F6FFF0
:101F48006FC0F7FF0800F5CF74F0000187510A0D44
:101F5800F3507425D00F876F6E4B6F2BB4EF0FF0D3
:101F68006EC0F6FF6FC0F7FF0800F55002EC35F0C1
:101F7800D8B0C1EF0FF0C3EF0FF0A2EF0FF0F1EF01
:101F880010F0F1EF10F0F1EF10F0000E0001876F84
:101F9800F1EF10F0F1EF10F052EF15F08B8D22EF0A
:101FA80011F022EF11F022EF11F08B8B8B8F22EFC3
:101FB80011F083C0D9FF84C0DAFFDECF7FF0DDCF18
:101FC80080F0020E8327000E84237F518011D8A44D
:101FD800F0EF0FF0F2EF0FF0F8EF0FF0D40E7F6F85
:101FE800FF0E806FF8EF0FF0000E826F000E816F0A
:101FF80003EF10F00001814B822B03EF10F08151A9
:102008007F25746F82518021756F74C0F6FF75C08B
:10201800F7FFF86A0E0EF76403D00800F55005D0F4
:10202800F6CFE9FFF7CFEAFFEF500009D8A41FEF7A
:1020380010F021EF10F0FEEF0FF025EF10F025EF74
:1020480010F000018751D8B42CEF10F02EEF10F0EB
:1020580045EF10F087C074F0756B74BF7507815138
:10206800745D82517559D8B03CEF10F03EEF10F016
:1020780045EF10F08751816F826B81BF820745EF72
:1020880010F08851815D89518259D8B04EEF10F017
:1020980050EF10F056EF10F08151885F8251895B44
:1020A8005CEF10F0000E896F000E886F5CEF10F087
:1020B8008BB761EF10F063EF10F0A0EF10F071EF45
:1020C80010F071EF10F06CC0D9FF6DC0DAFF200E70
:1020D800DF6E6C4B6D2B71EF10F08807D8A0890765
:1020E800882906E18929D8A47CEF10F07EEF10F04A
:1020F80067EF10F0A0EF10F0A0EF10F0A0EF10F0D5
:102108007FC0F6FF80C0F7FFF86A6CC0D9FF6DC0CA
:10211800DAFF0E0EF76403D00800F55005D0F6CFAD
:10212800E9FFF7CFEAFFEF50DF6E00017F4B802B0E
:102138006C4B6D2BA0EF10F08107D8A08207812986
:1021480006E18229D8A4ABEF10F0ADEF10F084EFD0
:1021580010F08BA7B2EF10F0B4EF10F03DEF15F0D0
:10216800C2EF10F0C2EF10F06CC0D9FF6DC0DAFFFB
:10217800200EDF6E6C4B6D2BC2EF10F08807D8A0D5
:102188008907882906E18929D8A4CDEF10F0CFEF77
:1021980010F0B8EF10F03DEF15F03DEF15F03DEF02
:1021A80015F083C0D9FF84C0DAFFDF508A6F020EB2
:1021B8008327000E8423E1EF10F08A0E7F6F000E54
:1021C800806F000E826F010E816F25EF10F0C00E38
:1021D8008B1322EF11F022EF11F06EC0F6FF6FC0E3
:1021E800F7FF00016E4B6F2B0800F5CF8AF08A517C
:1021F800000AD8B452EF15F0580AD8B4D9EF0FF046
:102208003B0AD8B4D5EF10F0070AD8B422EF11F082
:102218000D0AD8B422EF11F0060AD8B4D2EF0FF0A5
:102228001C0AD8B4DDEF0FF0060AD8B4EBEF10F0B3
:102238000D0AD8B4DAEF0FF0E1EF10F0C00E8B15ED
:10224800746F000E8C15756F74517511D8A42FEF2B
:1022580011F031EF11F04EEF11F083C0D9FF84C0B7
:10226800DAFFDECF85F0DDCF86F0020E8327000E81
:10227800842386BF44EF11F042EF11F05CEF11F0B8
:10228800030E8B13856D861FD8B0862B5CEF11F07B
:102298005CEF11F083C0D9FF84C0DAFFDECF85F090
:1022A800DDCF86F0020E8327000E84235CEF11F049
:1022B8008751D8A462EF11F064EF11F018EF12F013
:1022C80085518611D8A46BEF11F06DEF11F018EF5E
:1022D80012F0872B18EF12F018EF12F074EF11F0CC
:1022E800010E8A6F050E8A19D8A47DEF11F07FEFD1
:1022F80011F083EF11F02CEF12F02CEF12F08A514D
:10230800020D270EF324F66EFE0EF420F76E090078
:10231800F550855D0900F5508659D8B096EF11F053
:1023280098EF11F09CEF11F02CEF12F02CEF12F057
:102338008A2B050E8A19D8A4A4EF11F0A6EF11F084
:1023480083EF11F02CEF12F02CEF12F0010E8A6FD0
:10235800040E8A19D8A4B3EF11F0B5EF11F0B9EF54
:1023680011F02CEF12F02CEF12F08A51020D310E01
:10237800F324F66EFE0EF420F76E0900F550855D25
:102388000900F5508659D8B0CCEF11F0CEEF11F016
:10239800D2EF11F02CEF12F02CEF12F08A2B040E72
:1023A8008A19D8A4DAEF11F0DCEF11F0B9EF11F0C7
:1023B8002CEF12F02CEF12F0010E8A6F060E8A191C
:1023C800D8A4E9EF11F0EBEF11F0EFEF11F02CEFDB
:1023D80012F02CEF12F08A51020D1B0EF324F66E48
:1023E800FE0EF420F76E0900F550855D0900F550E2
:1023F8008659D8B002EF12F004EF12F008EF12F08D
:102408002CEF12F02CEF12F08A2B060E8A19D8A4A2
:1024180010EF12F012EF12F0EFEF11F02CEF12F0B4
:102428002CEF12F02CEF12F08B51C00B000AD8B42D
:1024380074EF11F0400AD8B4E0EF11F0C00AD8B434
:10244800AAEF11F0400AD8B474EF11F02CEF12F093
:102458008A51800A746F8751800A745DD8B037EF4B
:1024680012F039EF12F03DEF12F087C08AF050EF0A
:1024780012F08751800A746F8A51800A745DD8B04F
:1024880048EF12F04AEF12F050EF12F08AC087F0CE
:1024980050EF12F050EF12F088518911D8B457EF6D
:1024A80012F059EF12F06DEF12F0030E8B15746FE6
:1024B800000E8C15756F74517511D8B466EF12F053
:1024C80068EF12F06DEF12F08807D8A089076DEF5A
:1024D80012F08CAD72EF12F074EF12F094EF12F06C
:1024E800800E87BF7F0E746F8851875D8951800A7F
:1024F8007459D8B082EF12F084EF12F08CEF12F01A
:102508008751885F000E87BFFF0E895B94EF12F03A
:10251800000E896F000E886F94EF12F094EF12F09E
:10252800C40E746F080E756F8BC076F08CC077F090
:102538007451761775517717400E761907E1080E12
:102548007719D8A4AAEF12F0ACEF12F0BCEF12F092
:1025580088518911D8B4B3EF12F0B5EF12F0F2EF49
:1025680012F08807D8A08907F2EF12F0F2EF12F004
:10257800C00E746F080E756F8BC076F08CC077F044
:102588007451761775517717800E761907E1080E82
:102598007719D8A4D2EF12F0D4EF12F0F2EF12F0BC
:1025A80089BFE0EF12F0895109E1030E885DD8A0D8
:1025B800E0EF12F0E2EF12F0E8EF12F0FE0E8827DB
:1025C800FF0E8923F2EF12F0000E896F000E886F5C
:1025D800F2EF12F0F2EF12F0F2EF12F0800E8ABF73
:1025E8007F0E746F88518A5D8951800A7459D8B0FA
:1025F80000EF13F002EF13F00AEF13F08A51885F2F
:10260800000E8ABFFF0E895B10EF13F0000E896F72
:10261800000E886F10EF13F08BA515EF13F017EF6E
:1026280013F0A7EF13F0030E8B15746F000E8C15C3
:10263800756F74517511D8B424EF13F026EF13F0A9
:1026480030EF13F06CC0D9FF6DC0DAFF2D0EDF6ECE
:102658006C4B6D2B82EF13F08BA135EF13F037EF36
:1026680013F041EF13F06CC0D9FF6DC0DAFF200EF4
:10267800DF6E6C4B6D2B82EF13F0C00E746F080E7B
:10268800756F8BC076F08CC077F0745176177551E2
:102698007717800E761907E1080E7719D8A457EF37
:1026A80013F059EF13F082EF13F06CC0D9FF6DC02F
:1026B800DAFF300EDF6E6C4B6D2B8BBB66EF13F0C1
:1026C80068EF13F06EEF13F0000E7A6F780E796FE3
:1026D80074EF13F0000E7A6F580E796F74EF13F0E1
:1026E8006CC0D9FF6DC0DAFF79C0DFFF6C4B6D2B72
:1026F80082EF13F082EF13F082EF13F08851891103
:10270800D8B489EF13F08BEF13F004EF15F08DEFC9
:1027180013F06CC0D9FF6DC0DAFF300EDF6E6C4B62
:102728006D2B8807D8A0890788518911D8A49FEFF5
:1027380013F0A1EF13F08DEF13F004EF15F004EF91
:1027480015F004EF15F088518911D8B4AEEF13F0E5
:10275800B0EF13F0D1EF13F08BB7B5EF13F0B7EF7D
:1027680013F0D1EF13F0B9EF13F06CC0D9FF6DC0BF
:10277800DAFF200EDF6E6C4B6D2B8807D8A0890717
:1027880088518911D8A4CBEF13F0CDEF13F0B9EF2E
:1027980013F0D1EF13F0D1EF13F0030E8B15746F14
:1027A800000E8C15756F74517511D8B4DEEF13F0E7
:1027B800E0EF13F0EAEF13F06CC0D9FF6DC0DAFF59
:1027C8002D0EDF6E6C4B6D2BFDEF13F08BA1EFEF31
:1027D80013F0F1EF13F0FDEF13F06CC0D9FF6DC0EB
:1027E800DAFF200EDF6E6C4B6D2BFDEF13F0FDEF63
:1027F80013F0C00E746F080E756F8BC076F08CC026
:1028080077F07451761775517717400E761907E1EE
:10281800080E7719D8A413EF14F015EF14F01FEF72
:1028280014F06CC0D9FF6DC0DAFF300EDF6E6C4B50
:102838006D2B04EF15F0C00E746F080E756F8BC00A
:1028480076F08CC077F07451761775517717800E33
:10285800761907E1080E7719D8A435EF14F037EF89
:1028680014F004EF15F06CC0D9FF6DC0DAFF300E1C
:10287800DF6E6C4B6D2B8BBB44EF14F046EF14F0FE
:102888004CEF14F0000E7C6F780E7B6F52EF14F053
:10289800000E7C6F580E7B6F52EF14F06CC0D9FF9E
:1028A8006DC0DAFF7BC0DFFF6C4B6D2B04EF15F0BA
:1028B80004EF15F004EF15F004EF15F0E6EF14F04F
:1028C80066EF14F08751020D270EF324F66EFE0E04
:1028D800F420F76E0900F5CF62F00A00F5CF63F037
:1028E80085C060F086C061F0AAEC31F060C067F086
:1028F80061C068F0000E00016A6F0A0E696F71EC22
:1029080032F000016751300F8A6FFAEF14F085C07A
:1029180060F086C061F08751020D310EF324F66E27
:10292800FE0EF420F76E0900F5CF62F00A00F5CF2D
:1029380063F0AAEC31F0000160510F0B786F8BBB8C
:10294800A8EF14F0AAEF14F0B0EF14F0720E7D6F38
:10295800FF0E7E6FB6EF14F0610E7D6FFF0E7E6F77
:10296800B6EF14F07851010D7DC074F07EC075F09B
:10297800F3507427F450752374C0F6FF75C0F7FF41
:102988000800F5CF8AF0FAEF14F085C060F086C031
:1029980061F08751020D1B0EF324F66EFE0EF42033
:1029A800F76E0900F5CF62F00A00F5CF63F0AAECE4
:1029B80031F000016051070B300F8A6FFAEF14F005
:1029C800FAEF14F08B51C00B000AD8B466EF14F07C
:1029D800400AD8B4C9EF14F0C00AD8B48BEF14F089
:1029E800400AD8B466EF14F0FAEF14F06CC0D9FFBF
:1029F8006DC0DAFF8AC0DFFF6C4B6D2B04EF15F05A
:102A080087078729D8A40BEF15F00DEF15F0E6EF2F
:102A180014F08BA712EF15F014EF15F03DEF15F039
:102A280089BF1FEF15F0895108E18805D8A01FEF6D
:102A380015F021EF15F03DEF15F023EF15F06CC000
:102A4800D9FF6DC0DAFF200EDF6E6C4B6D2B880747
:102A5800D8A0890788518911D8A435EF15F037EF28
:102A680015F023EF15F03DEF15F03DEF15F03DEFB4
:102A780015F06EC0F6FF6FC0F7FF6E4B6F2B0800A6
:102A8800F5CF8AF08A51D8A44CEF15F04EEF15F027
:102A9800A0EF0EF052EF15F052EF15F06CC0D9FF11
:102AA8006DC0DAFF000EDF6E5AEF15F0120081B22A
:102AB80060EF15F062EF15F063EF15F0F08043A0BA
:102AC80068EF15F06AEF15F083EF15F00101B651C4
:102AD80009E1800EB55DD8A074EF15F076EF15F01A
:102AE8007DEF15F0000EB66F000EB56F439083EFC3
:102AF80015F0B54BB62B83EF15F083EF15F00001F9
:102B0800FF69000E676F010E67658DEF15F08FEF97
:102B180015F093EF15F0B2EF15F0B2EF15F067511D
:102B2800500D000EF324D96E030EF420DA6EDF5038
:102B3800D8B4A1EF15F0A3EF15F0A7EF15F067C013
:102B4800FFF0B2EF15F0672B010E6765AEEF15F0D9
:102B5800B0EF15F093EF15F0B2EF15F0020EFF612C
:102B6800B8EF15F0BAEF15F0C4EF19F0010E686F61
:102B7800FF51500D010EF326000EF422000EF3242F
:102B8800D96E030EF420DA6E0301DFBCCEEF15F028
:102B9800D0EF15F0D3EF15F0000E0001686F000EAE
:102BA8002F6E000E376E0001FF51500D020EF326F6
:102BB800000EF422000EF324D96E030EF420DA6E10
:102BC800DF50CC0B666F05EF19F0FF51500D060E64
:102BD800F326000EF422000EF324D96E030EF4201F
:102BE800DA6EDE28D8A4FBEF15F0FDEF15F012EF32
:102BF80016F0FF51500D070EF326000EF422000EBA
:102C0800F324D96E030EF420DA6EDE28D8A40FEF71
:102C180016F011EF16F012EF16F02F842F8E685170
:102C2800D8B419EF16F01BEF16F05CEF16F0FF5151
:102C3800500D040EF326000EF422000EF324D96E74
:102C4800030EF420DA6EDF50386EFF51500D050E7A
:102C5800F326000EF422000EF324D96E030EF4209E
:102C6800DA6EDF50396EFF51500D080EF326000E54
:102C7800F422000EF324306E030EF420316EFF515F
:102C8800500D000EF324D96E030EF420DA6EDF50D7
:102C9800ED0F346EFF51500D100EF326000EF42286
:102CA800000EF324326E030EF420336E21EF19F078
:102CB800FF51500D080EF326000EF422000EF324E7
:102CC800D96E030EF420DA6EDF50386EFF51500DC6
:102CD800090EF326000EF422000EF324D96E030E1B
:102CE800F420DA6EDF50396EFF51500D0A0EF326CC
:102CF800000EF422000EF324306E030EF420316E21
:102D0800FF51500D000EF324D96E030EF420DA6E35
:102D1800DF50EB0F346EFF51500D120EF326000EEC
:102D2800F422000EF324326E030EF420336E21EFEA
:102D380019F021EF19F02F8E6851D8B4A6EF16F0CC
:102D4800A8EF16F0E9EF16F0FF51500D040EF32628
:102D5800000EF422000EF324D96E030EF420DA6E6E
:102D6800DF50386EFF51500D050EF326000EF42289
:102D7800000EF324D96E030EF420DA6EDF50396E9C
:102D8800FF51500D0E0EF326000EF422000EF32410
:102D9800306E030EF420316EFF51500D000EF324F7
:102DA800D96E030EF420DA6EDF50E70F346EFF5150
:102DB800500D160EF326000EF422000EF324326E88
:102DC800030EF420336E21EF19F0FF51500D0E0E53
:102DD800F326000EF422000EF324D96E030EF4201D
:102DE800DA6EDF50386EFF51500D0F0EF326000ECD
:102DF800F422000EF324D96E030EF420DA6EDF50AD
:102E0800396EFF51500D100EF326000EF422000EFD
:102E1800F324306E030EF420316EFF51500D000E76
:102E2800F324D96E030EF420DA6EDF50E50F346E0A
:102E3800FF51500D180EF326000EF422000EF32455
:102E4800326E030EF420336E21EF19F021EF19F0E2
:102E58002F842F8E010E376EFF51500D040EF3266E
:102E6800000EF422000EF324D96E030EF420DA6E5D
:102E7800DF50386EFF51500D050EF326000EF42278
:102E8800000EF324D96E030EF420DA6EDF50396E8B
:102E9800FF51500D060EF326000EF422000EF32407
:102EA800306E030EF420316EFF51500D000EF324E6
:102EB800D96E030EF420DA6EDF50F50F346EFF5131
:102EC800500D080EF326000EF422000EF324326E85
:102ED800030EF420336E21EF19F0FF51500D060E4A
:102EE800F326000EF422000EF324D96E030EF4200C
:102EF800DA6EDE28D8A483EF17F085EF17F09AEF83
:102F080017F0FF51500D070EF326000EF422000EA5
:102F1800F324D96E030EF420DA6EDE28D8A497EFD6
:102F280017F099EF17F09AEF17F02F842F8E010EF4
:102F3800376E6851D8A4A3EF17F0A5EF17F0E6EFA6
:102F480017F0FF51500D080EF326000EF422000E64
:102F5800F324D96E030EF420DA6EDF50386EFF5179
:102F6800500D090EF326000EF422000EF324D96E3C
:102F7800030EF420DA6EDF50396EFF51500D0A0E41
:102F8800F326000EF422000EF324306E030EF42014
:102F9800316EFF51500D000EF324D96E030EF4204C
:102FA800DA6EDF50F10F346EFF51500D0C0EF32620
:102FB800000EF422000EF324326E030EF420336E5A
:102FC80021EF19F0FF51500D040EF326000EF422E4
:102FD800000EF324D96E030EF420DA6EDF50386E3B
:102FE800FF51500D050EF326000EF422000EF324B7
:102FF800D96E030EF420DA6EDF50396EFF51500D92
:10300800080EF326000EF422000EF324306E030E91
:10301800F420316EFF51500D000EF324D96E030ECB
:10302800F420DA6EDF50F30F346EFF51500D0A0EA4
:10303800F326000EF422000EF324326E030EF42061
:10304800336E21EF19F021EF19F02F8E010E376E34
:103058006851D8B432EF18F034EF18F075EF18F063
:10306800FF51500D040EF326000EF422000EF32437
:10307800D96E030EF420DA6EDF50386EFF51500D12
:10308800050EF326000EF422000EF324D96E030E6B
:10309800F420DA6EDF50396EFF51500D0D0EF32615
:1030A800000EF422000EF324306E030EF420316E6D
:1030B800FF51500D000EF324D96E030EF420DA6E82
:1030C800DF50ED0F346EFF51500D100EF326000E39
:1030D800F422000EF324326E030EF420336E21EF37
:1030E80019F0FF51500D0D0EF326000EF422000EBC
:1030F800F324D96E030EF420DA6EDF50386EFF51D8
:10310800500D0E0EF326000EF422000EF324D96E95
:10311800030EF420DA6EDF50396EFF51500D0F0E9A
:10312800F326000EF422000EF324306E030EF42072
:10313800316EFF51500D000EF324D96E030EF420AA
:10314800DA6EDF50EB0F346EFF51500D120EF3267E
:10315800000EF422000EF324326E030EF420336EB8
:1031680021EF19F021EF19F0FF51500D060EF3264B
:10317800000EF422000EF324D96E030EF420DA6E4A
:10318800DE28D8A4CAEF18F0CCEF18F0E3EF18F057
:10319800FF51500D070EF326000EF422000EF32403
:1031A800D96E030EF420DA6EDE28D8A4DEEF18F00C
:1031B800E0EF18F0E3EF18F02F84E3EF18F0FF5179
:1031C800500D000EF324D96E030EF420DA6EDF5092
:1031D800F60F346EFF51500D080EF326000EF42240
:1031E800000EF324326E030EF420336E21EF19F033
:1031F8001FEC36F0000EC7EF19F0C7EF19F021EFFA
:1032080019F000016651080AD8B4B8EF18F0880A16
:10321800D8B42CEF17F0080AD8B471EF17F0040AE5
:10322800D8B429EF18F0440AD8B4E9EF15F0040A25
:10323800D8B49FEF16F0FCEF18F00001FF51500DC5
:10324800010EF326000EF422000EF324D96E030EAD
:10325800F420DA6E0301DFA634EF19F036EF19F027
:1032680056EF19F01FEC36F0000EC7EF19F0C7EF54
:1032780019F056EF19F0FC0E2F167DEF19F02F50AC
:10328800FC0B01092F6E7DEF19F0030E2F127DEF55
:1032980019F01FEC36F0000EC7EF19F0C7EF19F060
:1032A8007DEF19F00001FF51500D010EF326000EBD
:1032B800F422000EF324D96E030EF420DA6EDF50E8
:1032C800070B606F616B6151000AD8B46EEF19F09B
:1032D8004DEF19F06051000AD8B449EF19F0010A0E
:1032E800D8B43FEF19F0020AD8B443EF19F04DEF04
:1032F80019F0FF0E0001606FFF0E616FFF51500D56
:10330800000EF324D96E030EF420DA6EDF50626FDC
:10331800636B6051622761516323000E646F030E73
:10332800656F6251642763516523FF51500DF35057
:103338006425D96EF4506521DA6EDF50366EFF5180
:10334800500D000EF324D96E030EF420DA6EDF5010
:10335800606FFF51500D000E616F030E626FF350E6
:103368006127F450622360516125D96E000E6221F5
:10337800DA6EDF50356E010EC7EF19F0C7EF19F09E
:10338800000EC7EF19F012000001A751070BAC6F30
:10339800AC510101FA19D8A4D4EF19F0D6EF19F0FD
:1033A80016EF1AF0800E0001A665DDEF19F0DFEFC9
:1033B80019F0E6EF19F0000EB1EF1CF0B1EF1CF0B8
:1033C80016EF1AF0000E3A6E3A8AA8B102D03A9671
:1033D80001D03A86A6C059F0A7C05AF0010E3D6E3A
:1033E800010E3E6E590E3B6E000E3C6E57C03FF00C
:1033F80058C040F020EE3AF000EE7EF0060EDBCF2B
:10340800EBFFE806FCE2C40E0001856F010E866F33
:10341800C3C187F0B2EC1CF0B1EF1CF0B1EF1CF0A7
:1034280016EF1AF0ACC0A9F0010E0001AA6FA92B83
:1034380020EF1AF0D890AA37A92F1EEF1AF0000132
:10344800AA5145140009D8B42CEF1AF02EEF1AF03F
:10345800C5EF1AF0AC51010D200EF324D96E020EFF
:10346800F420DA6E020EDF643CEF1AF03EEF1AF039
:103478006BEF1AF0AC51010D200EF324D96E020E39
:10348800F420DA6E000EDF6EACC0A9F0010EAA6F50
:10349800A92B51EF1AF0D890AA37A92F4FEF1AF09D
:1034A8000001AA51FF0A4516AC51010D280EF3245C
:1034B800D96E020EF420DA6E000EDF6E18EC2FF0D3
:1034C800000EB1EF1CF0B1EF1CF0C5EF1AF0000EC2
:1034D8003A6E3A8A0001A8B102D03A9601D03A86EB
:1034E800000E596EACC05AF0010E3D6E010E3E6ED4
:1034F800590E3B6E000E3C6E57C03FF058C040F06E
:1035080020EE3AF000EE7EF0060EDBCFEBFFE80689
:10351800FCE2C40E0001856F010E866FC3C187F0FF
:10352800B2EC1CF00009D8A49CEF1AF09EEF1AF038
:10353800AFEF1AF00001AC51010D200EF324D96E43
:10354800020EF420DA6EDF2A000EB1EF1CF0B1EFA4
:103558001CF0C5EF1AF00001AC51010D200EF32448
:10356800D96E020EF420DA6E000EDF6E010EB1EF96
:103578001CF0B1EF1CF0C5EF1AF0C5EF1AF0C5EF5B
:103588001AF0000E0001AD6F070EAD65CEEF1AF010
:10359800D0EF1AF0D4EF1AF0CAEF1BF0CAEF1BF005
:1035A800AD51010D280EF324D96E020EF420DA6E07
:1035B800DF50A96FACC0AAF0010EAB6FAA2BE7EFE2
:1035C8001AF0D890AB37AA2FE5EF1AF00001AB51EB
:1035D800A9150009D8B4F3EF1AF0F5EF1AF0BCEF0B
:1035E8001BF0AD51010D200EF324D96E020EF4200C
:1035F800DA6E020EDF6403EF1BF005EF1BF068EFD5
:103608001BF0AD51010D200EF324D96E020EF420EB
:10361800DA6E000EDF6EADC0A9F0010EAA6FA92BFD
:1036280018EF1BF0D890AA37A92F16EF1BF000014E
:10363800AA51FF0A4516AD51010D280EF324D96E83
:10364800020EF420DA6E000EDF6E4450D8B42FEF6D
:103658001BF031EF1BF035EF1BF018EC2FF061EF8A
:103668001BF0000E0101C36FC351010DC40EF324FA
:10367800D96E010EF420DA6E070EDF6EC32BC3512C
:10368800010DC40EF324D96E010EF420DA6E5BC06E
:10369800DFFFC32BF769F869F70E00019D6F010E74
:1036A8009E6F000E9F6F000EA06F010EA16F000E9F
:1036B800A26F22EC2DF061EF1BF0000EB1EF1CF0B1
:1036C800B1EF1CF0BCEF1BF0000E3A6E3A8A000115
:1036D800A8B102D03A9601D03A86000E596EADC014
:1036E8005AF0010E3D6E010E3E6E590E3B6E000EF5
:1036F8003C6E57C03FF058C040F020EE3AF000EE64
:103708007EF0060EDBCFEBFFE806FCE2C40E0001FC
:10371800856F010E866FC3C187F0B2EC1CF00009FB
:10372800D8A499EF1BF09BEF1BF0AAEF1BF0000148
:10373800AD51010D200EF324D96E020EF420DA6E7D
:10374800DF2A000EB1EF1CF0B1EF1CF00001AD5103
:10375800010D200EF324D96E020EF420DA6E000E4D
:10376800DF6E010EB1EF1CF0B1EF1CF0BCEF1BF0E7
:103778000001AD2B070EAD65C4EF1BF0C6EF1BF0C3
:10378800D4EF1AF0CAEF1BF0CAEF1BF0020E441870
:10379800D8B4D1EF1BF0D3EF1BF071EF1CF0000E83
:1037A8003A6E3A8AA8B102D03A9601D03A864404D1
:1037B800D8A4E1EF1BF0E3EF1BF0E9EF1BF0000EDC
:1037C8005A6E000E596E3CEF1CF0000E0001AD6FF2
:1037D800070EAD65F2EF1BF0F4EF1BF0F8EF1BF0EE
:1037E80028EF1CF028EF1CF04550D8B4FEEF1BF072
:1037F80000EF1CF01DEF1CF0ADC0A9F0010EAA6F80
:10380800000EAB6FA92B0CEF1CF0D890AA37AB3782
:10381800A92F09EF1CF00001AA51AB11D8B417EF7A
:103828001CF019EF1CF01DEF1CF028EF1CF028EF1E
:103838001CF0AD2B070EAD6524EF1CF026EF1CF035
:10384800F8EF1BF028EF1CF0080EAD612EEF1CF00E
:1038580030EF1CF036EF1CF0ADC05AF0000E596E78
:103868003CEF1CF0000E5A6E000E596E3CEF1CF037
:10387800010E3D6E010E3E6E590E3B6E000E3C6E03
:1038880057C03FF058C040F020EE3AF000EE7EF00E
:10389800060EDBCFEBFFE806FCE2C40E0001856FE5
:1038A800010E866FC3C187F0B2EC1CF00009D8A4E2
:1038B80060EF1CF062EF1CF069EF1CF00201202B96
:1038C800000EB1EF1CF0B1EF1CF0000E0201206FEA
:1038D800010EB1EF1CF0B1EF1CF0000E3A6E3A8AFF
:1038E8000001A8B102D03A9601D03A86ACC05AF08D
:1038F800000E596E010E3D6E010E3E6E590E3B6E66
:10390800000E3C6E57C03FF058C040F020EE3AF031
:1039180000EE7EF0060EDBCFEBFFE806FCE2C40EFD
:103928000001856F010E866FC3C187F0B2EC1CF0F1
:103938000009D8A4A2EF1CF0A4EF1CF0ABEF1CF018
:103948000201202B000EB1EF1CF0B1EF1CF0000EAD
:103958000201206F010EB1EF1CF01200000E0001F1
:103968009C6F000E9B6F7EA5BCEF1CF0BEEF1CF099
:10397800C2EF1CF0010E816FC2EF1CF07EA7C7EFEB
:103988001CF0C9EF1CF0CDEF1CF0000E826FCDEFDC
:103998001CF07E51030BE806D8A4D5EF1CF0D7EF36
:1039A8001CF0DBEF1CF0030E996FEBEF1CF07E515F
:1039B800030B0009D8A4E3EF1CF0E5EF1CF0EBEFD4
:1039C8001CF0010E996FEBEF1CF0EBEF1CF055505B
:1039D800831907E156508419D8A4F5EF1CF0F7EFC6
:1039E8001CF008EF1DF0552808E15628D8B4FFEF61
:1039F8001CF001EF1DF008EF1DF0050E9A6F998D70
:103A0800010E986F0CEF1DF0070E9A6F000E986F5D
:103A18008151D8B412EF1DF014EF1DF018EF1DF00E
:103A2800020E9A271CEF1DF0080E9A271CEF1DF0B6
:103A38008251D8B422EF1DF024EF1DF028EF1DF0BD
:103A4800020E9A272CEF1DF0080E9A272CEF1DF076
:103A58007EAB31EF1DF033EF1DF03DEF1DF07EB56D
:103A680038EF1DF03AEF1DF03DEF1DF0998B3DEF5B
:103A78001DF07E51030B030AD8A445EF1DF047EF54
:103A88001DF052EF1DF0000E996F070E9A6F000E91
:103A9800986F010E826F7E9B52EF1DF09CC062F002
:103AA800636B9AC064F059EC34F000019C2B9CC005
:103AB80062F0636B9A518725646F59EC34F000010A
:103AC8009C2B9CC062F0636B99C064F059EC34F095
:103AD80000019C2B7E51030B030AD8A476EF1DF03E
:103AE80078EF1DF08EEF1DF09CC062F0636B800EC6
:103AF800646F59EC34F000019C2B9CC062F0636B3E
:103B0800BEC164F059EC34F00101BE2B00019C2BBE
:103B18007CEF1EF08151D8B494EF1DF096EF1DF0A4
:103B2800A9EF1DF08251D8B49CEF1DF09EEF1DF057
:103B3800A9EF1DF09CC062F0636B880E646F59ECAE
:103B480034F000019C2BEEEF1DF08151D8B4AFEF9B
:103B58001DF0B1EF1DF0C4EF1DF08251D8A4B7EFEE
:103B68001DF0B9EF1DF0C4EF1DF09CC062F0636B4F
:103B7800C80E646F59EC34F000019C2BEEEF1DF079
:103B88008151D8A4CAEF1DF0CCEF1DF0DFEF1DF076
:103B98008205D8A4D2EF1DF0D4EF1DF0DFEF1DF0A1
:103BA8009CC062F0636B8C0E646F59EC34F00001BA
:103BB8009C2BEEEF1DF09CC062F0636BCC0E646F23
:103BC80059EC34F000019C2BEEEF1DF0EEEF1DF0E8
:103BD800EEEF1DF09CC062F0636BBEC164F059EC5F
:103BE80034F00101BE2B00019C2B9CC062F0636B7A
:103BF80083C064F059EC34F000019C2B9CC062F047
:103C0800636B84C064F059EC34F000019C2B7EA5F2
:103C180010EF1EF012EF1EF026EF1EF09CC062F0AF
:103C2800636BFF0E646F59EC34F000019C2B9CC051
:103C380062F0636BFF0E646F59EC34F000019C2B4B
:103C48007CEF1EF08151D8B42CEF1EF02EEF1EF041
:103C58004CEF1EF09CC062F0636B7FC0D9FF80C040
:103C6800DAFFDF50646F59EC34F000019C2B9CC0E4
:103C780062F0636B20EE01F07F51D9268051DA2281
:103C8800DF50646F59EC34F000019C2B7CEF1EF080
:103C9800000E9B6F070E9B6554EF1EF056EF1EF04B
:103CA8005AEF1EF07CEF1EF07CEF1EF09CC062F015
:103CB800636B9B51010DF3507F25D96EF450802121
:103CC800DA6EDF50646F59EC34F000019C2B9B2BAB
:103CD800070E9B6572EF1EF074EF1EF05AEF1EF090
:103CE8007CEF1EF07CEF1EF07CEF1EF07CEF1EF0E8
:103CF8009851D8A482EF1EF084EF1EF098EF1EF0C2
:103D08009CC062F0636B55C064F059EC34F000015C
:103D18009C2B9CC062F0636B56C064F059EC34F085
:103D280000019C2B98EF1EF08251D8B49EEF1EF034
:103D3800A0EF1EF0B4EF1EF09CC062F0636B53C09E
:103D480064F059EC34F000019C2B9CC062F0636B6A
:103D580054C064F059EC34F000019C2BE2EF1EF0E3
:103D6800000E9B6F070E9B65BCEF1EF0BEEF1EF0AA
:103D7800C2EF1EF0E2EF1EF0E2EF1EF09CC062F010
:103D8800636B9B51010DF3500101B325D96EF450BB
:103D9800B421DA6EDF500001646F59EC34F0000191
:103DA8009C2B9B2B070E9B65DCEF1EF0DEEF1EF0B5
:103DB800C2EF1EF0E2EF1EF0E2EF1EF0000E9B6F66
:103DC800FAEF1EF09CC062F0636B9B51010DF3503B
:103DD8008525D96EF4508621DA6EDF50646F59EC70
:103DE80034F000019C2B9B2BFAEF1EF087519B5D52
:103DF800D8A001EF1FF003EF1FF0E6EF1EF043809D
:103E08007EAB09EF1FF00BEF1FF017EF1FF07EB529
:103E180010EF1FF012EF1FF017EF1FF0050E9B6F4A
:103E280043821CEF1FF0010E9B6F43921CEF1FF0A3
:103E38009BC062F0370EC3EC35F01AEC31F060C06D
:103E480090F061C091F062C092F063C093F02DEFE2
:103E58001FF081B232EF1FF034EF1FF035EF1FF083
:103E6800F08043B03AEF1FF03CEF1FF04BEF1FF02C
:103E780043A441EF1FF043EF1FF098EF1FF0439466
:103E8800000E9BEF1FF09BEF1FF098EF1FF01AEC4E
:103E980031F060C094F061C095F062C096F063C0E4
:103EA80097F090C088F091C089F092C08AF093C0D2
:103EB8008BF00001881F891F8A1F8B1F882B000E1B
:103EC80089238A238B23945188258C6F95518921C6
:103ED8008D6F96518A218E6F97518B218F6F8F51DD
:103EE8008E110BE1210E8C5D4E0E8D59D8A07FEFFF
:103EF8001FF081EF1FF02DEF1FF001EC26F0530E9D
:103F08000001656F000E666F550E676F000E686FD3
:103F1800C5EC33F04390000E9BEF1FF09BEF1FF0B2
:103F28002DEF1FF02DEF1FF0010E9BEF1FF0120079
:103F38004650D8B4A2EF1FF0A4EF1FF0B5EF1FF062
:103F48000101CF51D8B4ABEF1FF0ADEF1FF0B5EFC3
:103F58001FF0418647C0FBF1060E0001F56FB9EF6F
:103F68001FF0020E0001F56F4196DB51D8B4BFEF88
:103F78001FF0C1EF1FF05AEF21F0000EF66F070E89
:103F8800F665C9EF1FF0CBEF1FF0CFEF1FF0ECEF96
:103F98001FF0ECEF1FF0F651010DF350D925D96E43
:103FA800F450DA21DA6EF651010D300EF324E16E89
:103FB800020EF420E26EDFCFE7FFF62B070EF66560
:103FC800E8EF1FF0EAEF1FF0CFEF1FF0ECEF1FF064
:103FD8001DEC2CF00001F76FF729D8A4F6EF1FF0BD
:103FE800F8EF1FF03AEF20F05CC0C4F1020E0101B7
:103FF800C56FC669C769C869C96957C0CAF158C0D9
:10400800CBF1F9C1CCF1FAC1CDF147C0CEF1472AC5
:10401800000E3A6E3A8A0001DCB102D03A9601D01D
:104028003A86D9C03BF0DAC03CF0000E3D6E010E76
:104038003E6E57C03FF058C040F0419620EE3AF02F
:1040480000EE7EF0060EDBCFEBFFE806FCE2C40EC6
:104058000001856F010E866FC3C187F0B2EC1CF0BA
:1040680024EF22F024EF22F05AEF21F00001F7515B
:104078000D0D0C0EF326000EF422380EF324D96E23
:10408800020EF420DA6E0201DFB64DEF20F04FEF9A
:1040980020F053EF20F0F8EF1FF0F8EF1FF0465034
:1040A800D8B459EF20F05BEF20F06EEF20F000015C
:1040B800F7510D0D020EF326000EF422380EF324EC
:1040C800D96E020EF420DA6EDECFB7F1DDCFB8F18B
:1040D8006EEF20F0040E0101C46FF5C0C5F10001B8
:1040E800F7510D0D380EF324D96E020EF420DA6E56
:1040F800DF500101C66F0001F7510D0D010EF326C7
:10410800000EF422380EF324D96E020EF420DA6E73
:10411800DF500101C76F0001F7510D0D020EF326A4
:10412800000EF422380EF324D96E020EF420DA6E53
:10413800DF500101C86F0001F7510D0D030EF32682
:10414800000EF422380EF324D96E020EF420DA6E33
:10415800DF500101C96F57C0CAF158C0CBF1F9C18E
:10416800CCF1FAC1CDF147C0CEF1472A0001F75191
:104178000D0D380EF324D96E020EF420DA6EDECF60
:10418800A4F0DDCFA5F0F7510D0D020EF326000EB9
:10419800F422380EF324D96E020EF420DA6EDECF44
:1041A800A6F0DDCFA7F0DCC0A8F0C8EC19F0000934
:1041B800D8A4E1EF20F0E3EF20F0E8EF20F04196FB
:1041C80024EF22F024EF22F041A6EDEF20F0EFEFEC
:1041D80020F024EF22F01AEC31F060C0E5F061C065
:1041E800E6F062C0E7F063C0E8F0FBEF20F095EC82
:1041F80036F00009D8B403EF21F005EF21F009EFFC
:1042080021F0DBEC36F009EF21F041B60EEF21F09A
:1042180010EF21F014EF21F024EF22F024EF22F028
:104228001AEC31F060C0E9F061C0EAF062C0EBF06E
:1042380063C0ECF0E5C0DDF0E6C0DEF0E7C0DFF01B
:10424800E8C0E0F00001DD1FDE1FDF1FE01FDD2BEF
:10425800000EDE23DF23E023E951DD25E16FEA517B
:10426800DE21E26FEB51DF21E36FEC51E021E46FD7
:10427800E4510DE1210EE15DA10EE259070EE3596B
:10428800D8A049EF21F04BEF21F0FBEF20F0419649
:1042980024EF22F0FBEF20F0FBEF20F024EF22F0D8
:1042A80024EF22F024EF22F05AEF21F0040E01014E
:1042B800C46FF5C0C5F157C0C6F158C0C7F1D9C021
:1042C800D9FFDAC0DAFFDF50C86F000120EE01F035
:1042D800D951D926DA51DA22DF500101C96F57C006
:1042E800CAF158C0CBF1F9C1CCF1FAC1CDF147C040
:1042F800CEF1472AD9C0D9FFDAC0DAFFDF50B76F4D
:10430800000120EE01F0D951D926DA51DA22DF5026
:104318000101B86FD9C0D9FFDAC0DAFFDF50596E92
:10432800000120EE01F0D951D926DA51DA22DF5006
:104338005A6E57C0A4F058C0A5F059C0A6F05AC08C
:10434800A7F0DCC0A8F0C8EC19F00009D8A4AFEFBA
:1043580021F0B1EF21F0B6EF21F0419624EF22F0E1
:1043680024EF22F041A6BBEF21F0BDEF21F024EFAE
:1043780022F01AEC31F060C0EDF061C0EEF062C0DE
:10438800EFF063C0F0F0C9EF21F095EC36F00009CA
:10439800D8B4D1EF21F0D3EF21F0D7EF21F0DBEC47
:1043A80036F0D7EF21F041B6DCEF21F0DEEF21F057
:1043B800E2EF21F024EF22F024EF22F01AEC31F0A2
:1043C80060C0F1F061C0F2F062C0F3F063C0F4F0D5
:1043D800EDC0DDF0EEC0DEF0EFC0DFF0F0C0E0F0E1
:1043E8000001DD1FDE1FDF1FE01FDD2B000EDE23B7
:1043F800DF23E023F151DD25E16FF251DE21E26F89
:10440800F351DF21E36FF451E021E46FE4510DE152
:10441800210EE15DA10EE259070EE359D8A017EF6E
:1044280022F019EF22F0C9EF21F0419624EF22F093
:10443800C9EF21F0C9EF21F024EF22F024EF22F098
:1044480012000101116F030E0101106F0001F9053F
:10445800D8A431EF22F033EF22F062EF22F05AECC9
:1044680024F047EF22F095EC36F00009D8B43FEF7E
:1044780022F041EF22F047EF22F0DBEC36F047EF75
:1044880022F047EF22F00201B4B34DEF22F04FEFD4
:1044980022F037EF22F0B4A154EF22F056EF22F0C9
:1044A8005BEF22F0B55159EF24F059EF24F0FF0EDD
:1044B80059EF24F059EF24F056EF24F00001F95198
:1044C800D8A469EF22F06BEF22F056EF24F0010137
:1044D8001129D8A472EF22F074EF22F0AFEF22F086
:1044E80083EF22F083EF22F00101102F83EF22F0F7
:1044F800FF0E59EF24F059EF24F083EF22F05BC050
:1045080000F1010E016F026B036B046B002B92EF3D
:1045180022F0D8900137023703370437002F8DEF88
:1045280022F001C1D9F002C1DAF003C1DBF004C105
:10453800DCF00A0E88EC27F00009D8B4A6EF22F0C8
:10454800A8EF22F078EF22F0AAEF22F0000E010186
:10455800116FAFEF22F011510E0D090EF326000E68
:10456800F422000EF324D96E040EF420DA6EDECFA6
:10457800F7F1DDCFF8F111510E0D010EF326000E03
:10458800F422000EF324D96E040EF420DA6EDF5004
:10459800596E11510E0D020EF326000EF422000E74
:1045A800F324D96E040EF420DA6EDF505A6E8DECC7
:1045B8002DF0486E4828D8A4E4EF22F0E6EF22F068
:1045C800F8EF22F0E8EC32F0486E4828D8A4EFEF74
:1045D80022F0F1EF22F0F8EF22F0FF0E59EF24F06D
:1045E80059EF24F0F8EF22F048500D0D0C0EF32689
:1045F800000EF422380EF324D96E020EF420DA6E7F
:10460800000EDF6E010111510E0D090EF326000E8A
:10461800F422000EF324D96E040EF420DA6E48500A
:104628000D0D380EF324E16E020EF420E26EDECF9B
:10463800E6FFDDCFE5FF11510E0D010EF326000E4A
:10464800F422000EF324D96E040EF420DA6E4850DA
:104658000D0D020EF326000EF422380EF324E16E3F
:10466800020EF420E26EDFCFE7FF11510E0D020EAD
:10467800F326000EF422000EF324D96E040EF42063
:10468800DA6E48500D0D030EF326000EF422380E94
:10469800F324E16E020EF420E26EDFCFE7FF48500C
:1046A8000D0D0C0EF326000EF422380EF324D96EED
:1046B800020EF420DA6E0201DF8648500D0D0C0E52
:1046C800F326000EF422380EF324D96E020EF420DD
:1046D800DA6EDF8248500D0D0C0EF326000EF42220
:1046E800380EF324D96E020EF420DA6EDF8A4850B1
:1046F8000D0D0C0EF326000EF422380EF324D96E9D
:10470800020EF420DA6EDF80010111510E0D000E49
:10471800F324D96E040EF420DA6EDF503DEC35F048
:1047280048500D0D380EF324D96E020EF420DA6EBF
:10473800DECF57F0DDCF58F059685A68590E00019E
:10474800656F000E666F570E676F000E686FC5ECD9
:1047580033F0000E0101C36FC351010DC40EF324E1
:10476800D96E010EF420DA6E010EDF6EC32BC35131
:10477800010DC40EF324D96E010EF420DA6E4BC07D
:10478800DFFFC32B48500D0D380EF32400019D6F39
:10479800020EF4209E6F48500D0D020EF326000EF7
:1047A800F422380EF3249F6F020EF420A06F010E3E
:1047B800A16F080EA26F22EC2DF01AEC31F060C048
:1047C80008F161C009F162C00AF163C00BF139EF69
:1047D80024F095EC36F00009D8B4F5EF23F0F7EFA4
:1047E80023F0FBEF23F0DBEC36F0FBEF23F01AECC1
:1047F80031F060C00CF161C00DF162C00EF163C010
:104808000FF108C100F109C101F10AC102F10BC1A0
:1048180003F10101001F011F021F031F002B000EDF
:104828000123022303230C510025046F0D5101219C
:10483800056F0E510221066F0F510321076F0751B3
:104848000DE1210E045DA10E0559070E0659D8A0E9
:1048580030EF24F032EF24F039EF24F0FF0E59EF57
:1048680024F059EF24F039EF24F048500D0D0C0EC8
:10487800F326000EF422380EF324D96E020EF4202B
:10488800DA6E0201DFA84BEF24F04DEF24F0EDEFD4
:1048980023F04FEF24F0485059EF24F059EF24F05B
:1048A80056EF24F0FF0E59EF24F012000201B491E4
:1048B800020E4418D8A463EF24F065EF24F09CEFAF
:1048C80025F0B4B36AEF24F06CEF24F0AAEF24F0DB
:1048D8001AEC31F060C0CAF261C0CBF262C0CCF20F
:1048E80063C0CDF2000E0201B76F000EB66F000E66
:1048F8000001F86F070EF86584EF24F086EF24F0C6
:104908008AEF24F0A5EF24F0A5EF24F0F851010D6B
:10491800D70EF324D96E020EF420DA6EF851010D89
:10492800B80EF324E16E020EF420E26EDFCFE7FF4B
:10493800F82B070EF865A3EF24F0A5EF24F08AEF13
:1049480024F00201B483B49100EF26F0B651B711F8
:10495800D8A4B1EF24F0B3EF24F0B7EF24F000EFC0
:1049680026F000EF26F00101F9510201B6190BE11A
:104978000101FA510201B719D8B4C5EF24F0C7EF05
:1049880024F000EF26F00B0E0101C36FC351010D97
:10499800C40EF324D96E010EF420DA6E000EDF6E19
:1049A800C32BC351010DC40EF324D96E010EF4209C
:1049B800DA6E110EDF6EC32B000E0001F86F070EC2
:1049C800F865E9EF24F0EBEF24F0EFEF24F00FEFB8
:1049D80025F00FEF25F0F851010DD70EF324D96E0D
:1049E800020EF420DA6E0101C351010DC40EF32446
:1049F800E16E010EF420E26EDFCFE7FFC32B00016A
:104A0800F82B070EF8650BEF25F00DEF25F0EFEF0B
:104A180024F00FEF25F00101C351010DC40EF3245A
:104A2800D96E010EF420DA6EF9C1DFFFC32BC35132
:104A3800010DC40EF324D96E010EF420DA6EFAC10A
:104A4800DFFFC32B000E0001F86F070EF8652FEF8C
:104A580025F031EF25F035EF25F050EF25F050EF38
:104A680025F0F851010DB80EF324D96E020EF4208A
:104A7800DA6EF851010D300EF324E16E020EF420C7
:104A8800E26EDFCFE7FFF82B070EF8654EEF25F053
:104A980050EF25F035EF25F0B6C259F0B7C25AF0FD
:104AA8008DEC2DF00201B56FB529D8B45EEF25F075
:104AB80060EF25F070EF25F0B5510D0D0C0EF326C3
:104AC800000EF422380EF324D96E020EF420DA6EAA
:104AD800DF50496E7CEF25F08C0E496E59BE77EF9A
:104AE80025F079EF25F07CEF25F049807CEF25F063
:104AF80057C0F7F158C0F8F1DCEC2AF00201B56FA5
:104B0800B60E0001D96F020EDA6F000EDB6F000ED1
:104B1800DC6F9CEC1FF00201B493B48100EF26F027
:104B280000EF26F000EF26F000EF26F0A8EF25F0C2
:104B38001AEC31F060C0CAF261C0CBF262C0CCF2AC
:104B480063C0CDF2A8EF25F0000E5A6E000E596E24
:104B58000B0E0101C36FC351010DC40EF324D96EAE
:104B6800010EF420DA6E000EDF6EC32BC351010D67
:104B7800C40EF324D96E010EF420DA6E100EDF6E27
:104B8800C32B000E0001F86F070EF865CEEF25F075
:104B9800D0EF25F0D4EF25F0F4EF25F0F4EF25F071
:104BA800F851010DD70EF324D96E020EF420DA6EF7
:104BB8000101C351010DC40EF324E16E010EF4206E
:104BC800E26EDFCFE7FFC32B0001F82B070EF86575
:104BD800F0EF25F0F2EF25F0D4EF25F0F4EF25F013
:104BE800590ED96F000EDA6F000EDB6F000EDC6F06
:104BF8009CEC1FF00201B48312008C9E030E00018E
:104C0800736F000E746F000E756F000E766F33EFC2
:104C180026F09A0E6B6F020E6C6F000E6D6F000E11
:104C28006E6F19EF26F019EF26F06B07000E6C5B1C
:104C38006D5B6E5B6B290AE16C2908E16D2906E161
:104C48006E29D8A42AEF26F02CEF26F019EF26F0CB
:104C58002EEF26F07307000E745B755B765B73515D
:104C6800741175117611D8A43CEF26F03EEF26F0AA
:104C78000DEF26F08C8E0A0E776F000E786F000EFF
:104C8800796F000E7A6F6FEF26F09A0E6F6F020E33
:104C9800706F000E716F000E726F55EF26F055EFB2
:104CA80026F06F07000E705B715B725B6F290AE17B
:104CB800702908E1712906E17229D8A466EF26F067
:104CC80068EF26F055EF26F06AEF26F07707000E1A
:104CD800785B795B7A5B7751781179117A11D8A46E
:104CE80078EF26F07AEF26F049EF26F07CEF26F0F1
:104CF800070E626F550EC3EC35F0540E73EC35F0A9
:104D080000017D6F7DC06AF0070E6A17D8A48FEF87
:104D180026F091EF26F081EF26F093EF26F0000EB3
:104D28007C6F000E7B6FE80E7B5D030E7C59D8A06C
:104D3800A0EF26F0A2EF26F0A6EF26F0B5EF26F0BA
:104D4800B5EF26F07B4B7C2BE80E7B5D030E7C5980
:104D5800D8A0B1EF26F0B3EF26F0A6EF26F0B5EF16
:104D680026F0010E626F1B0EC3EC35F0FF0E00013A
:104D7800626F070EC3EC35F0FF0E0001626F090E7B
:104D8800C3EC35F0FF0E0001626F030EC3EC35F083
:104D9800FF0E0001626F050EC3EC35F0000E000136
:104DA8007D6F070E7D65DBEF26F0DDEF26F0E1EF86
:104DB80026F0FFEF26F0FFEF26F07D51010DF350AE
:104DC8000101B325D96EF450B421DA6EDF50000129
:104DD800626F7D51020DF3500B0FC3EC35F00001EB
:104DE8007D2B070E7D65FBEF26F0FDEF26F0E1EF4A
:104DF80026F0FFEF26F0020E636F020E626F800E40
:104E0800646F59EC34F0020E0001636F030E626F99
:104E1800000E646F59EC34F0020E0001636F060E49
:104E2800626F900E646F59EC34F0020E0001636FEC
:104E3800070E626F800E646F59EC34F0020E0001A9
:104E4800636F080E626F100E646F59EC34F0020E37
:104E58000001636F200E626F210E646F59EC34F00D
:104E6800800E0001626F750EC3EC35F0400E000134
:104E7800626F7D0EC3EC35F0600E0001626F7F0E2D
:104E8800C3EC35F0980E0001626F310EC3EC35F0BB
:104E9800950E0001626F5D0EC3EC35F054EF27F0FC
:104EA800020E0001636F0F0E626F2AEC34F00001EE
:104EB8007D6F7D51A00BA00AD8A465EF27F067EF9E
:104EC80027F054EF27F069EF27F0E60E626F650EC2
:104ED800C3EC35F0020E0001636F000E626F030E23
:104EE800646F59EC34F0020E0001636F010E626FBB
:104EF800020E646F59EC34F0000E0001686F010176
:104F0800BD515AEC33F012000001F66F010E00019A
:104F1800EA6F000EEB6F000EEC6F000EED6F5BC0DA
:104F2800F7F0000EF86F090EF8659DEF27F09FEF78
:104F380027F0A3EF27F0B8EF27F0B8EF27F0F851E4
:104F48000E0D000EF324D96E040EF420DA6EFF0E57
:104F5800DF6EF82B090EF865B4EF27F0B6EF27F0EF
:104F6800A3EF27F0B8EF27F0000E4A6E4180000E3D
:104F7800F86F8EEF28F0F8C0DDF0EAC0DEF0EBC085
:104F8800DFF0ECC0E0F0EDC0E1F0DD2BD1EF27F071
:104F9800D890DE37DF37E037E137DD2FCCEF27F069
:104FA800D951DE15E26FDA51DF15E36FDB51E015F9
:104FB800E46FDC51E115E56F000EE215E66FF80EBF
:104FC800E315E76FFF0EE415E86F070EE515E96FC7
:104FD800E651E711E811E911D8B4F5EF27F0F7EF3A
:104FE80027F08BEF28F0F8513DEC35F0000E010169
:104FF800C36FC351010DC40EF324D96E010EF42002
:10500800DA6E070EDF6EC32BC351010DC40EF324F5
:10501800D96E010EF420DA6E5BC0DFFFC32BF7698F
:10502800F869F70E00019D6F010E9E6F000E9F6FCD
:10503800000EA06F010EA16F000EA26F22EC2DF0E2
:105048001AEC31F060C0EEF061C0EFF062C0F0F031
:1050580063C0F1F030EF28F095EC36F00009D8B4D1
:1050680038EF28F03AEF28F03EEF28F0DBEC36F086
:105078003EEF28F01AEC31F060C0F2F061C0F3F0B6
:1050880062C0F4F063C0F5F0EEC0DDF0EFC0DEF012
:10509800F0C0DFF0F1C0E0F00001DD1FDE1FDF1F10
:1050A800E01FDD2B000EDE23DF23E023F251DD2598
:1050B800E16FF351DE21E26FF451DF21E36FF55127
:1050C800E021E46FF651040DDF0EF324F66EFD0EB9
:1050D800F420F76EE1510900F55CE2510900F5583A
:1050E800E3510900F558E4510900F558D8B07FEFAD
:1050F80028F081EF28F030EF28F08BEF28F08BEFC5
:1051080028F030EF28F030EF28F08BEF28F0F82B5C
:105118008EEF28F01F0EF86594EF28F096EF28F030
:10512800BFEF27F098EF28F0F7513DEC35F04190AC
:105138004A509FEF28F01200000E7CEC29F00E0E6A
:105148003DEC35F00009D8A4ACEF28F0AEEF28F01C
:10515800B7EF28F0C40E0001616FFE0E626F64ECB9
:1051680031F079EF29F0000E0001D96F400EDA6FA7
:10517800000EDB6F000EDC6F0A0E88EC27F00001D2
:10518800FD6F000EFC6FFD51D8B4CDEF28F0CFEFC6
:1051980028F00AEF29F0000EFE6FFDEF28F0FE510F
:1051A8000E0D090EF326000EF422000EF324D96E1C
:1051B800040EF420DA6E210EDE180AE1430EDE1822
:1051C800D8B4E9EF28F0ECEF28F0010EEDEF28F065
:1051D800000EFC6FFC51D8B4F4EF28F0F6EF28F07D
:1051E800FAEF28F00AEF29F00AEF29F0FE2BFDEF7D
:1051F80028F0FD51FE5DD8A004EF29F006EF29F054
:10520800D3EF28F00AEF29F00AEF29F0FC51D8B4BF
:1052180010EF29F012EF29F035EF29F0020EA9EC72
:1052280035F0000E0001F96FFE5125EC22F0FF0A5F
:10523800D8A421EF29F023EF29F02CEF29F0E00E74
:105248000001616FFE0E626F64EC31F079EF29F0B6
:105258005F0E0001616FFE0E626F64EC31F05EEF6D
:1052680029F0000EA9EC35F0000E0001696F000E60
:105278006A6F000E6B6F000E6C6F000E6D6F000E84
:1052880081EC30F00009D8A44CEF29F04EEF29F05A
:1052980057EF29F0300E0001616FFF0E626F64EC6A
:1052A80031F079EF29F0A80E0001616FFE0E626FF0
:1052B80064EC31F04A0E0001616FFF0E626F64EC1E
:1052C80031F0F90E0001616F010E626F020E636F1B
:1052D80058EC2EF0F40E0001616FFF0E626F64EC63
:1052E80031F07BEF29F07BEF29F079EF29F01200FC
:1052F8000001836F0101F969FA69430E586E210EA6
:10530800576E000E0001876F060E87658EEF29F035
:1053180090EF29F094EF29F0ADEF29F0ADEF29F0E7
:1053280087510D0D0C0EF326000EF422380EF324CF
:10533800D96E020EF420DA6E000EDF6E872B060E91
:105348008765A9EF29F0ABEF29F094EF29F0ADEFCD
:1053580029F0000E876F070E8765B5EF29F0B7EFC4
:1053680029F0BBEF29F0DAEF29F0DAEF29F08751BD
:10537800010D280EF324D96E020EF420DA6E000E09
:10538800DF6E8751010D200EF324D96E020EF42032
:10539800DA6E000EDF6E872B070E8765D6EF29F0D1
:1053A800D8EF29F0BBEF29F0DAEF29F0000E456EAF
:1053B800000E446E000E426E000E416E000E020199
:1053C800B46F000E4B6EAFEC36F0000E0101C36FE8
:1053D800000E0001846F8451870B4009846F848319
:1053E80083B102D0849502D000018485D70E856FE1
:1053F800020E866F84C07EF085C07FF086C080F084
:1054080091EC33F0F90E0001656F010E666F570ECF
:10541800676F000E686FC5EC33F05B503DEC35F0FC
:105428004B804CC082F00001823B4B508219CF0B5D
:1054380082194B6E4B8C44C082F082474B508219C4
:10544800F90B82194B6ED6CF47F0F090F0862DEF0E
:105458002AF01200000E0101996F000E986FF9C131
:1054680096F1FAC197F1640E00016C6F010E6D6F31
:10547800840E6E6FFE0E6F6FF8C070F0F9C071F099
:10548800FAC072F0FBC073F099EC0EF00B0E01013C
:10549800C36F64EF2AF0640E9825D96E010E992126
:1054A800DA6EC351010DC40EF324E16E010EF4202F
:1054B800E26EDFCFE7FFC32B984B992B64EF2AF0FE
:1054C800640E9825D96E010E9921DA6EDF50D8A4A2
:1054D80070EF2AF072EF2AF04FEF2AF074EF2AF0FB
:1054E800C351010DC40EF324D96E010EF420DA6EF7
:1054F800000EDF6EC32B000E0001616F010E626F9C
:1055080064EC31F00001FC51FD11D8A48EEF2AF0B3
:1055180090EF2AF0A8EF2AF0010196519711D8A42C
:1055280098EF2AF09AEF2AF0A0EF2AF0010E9B6F6D
:10553800000E9A6FC1EF2AF0000E9B6F000E9A6F53
:10554800C1EF2AF0C1EF2AF0C80E01019619971190
:10555800D8A4B1EF2AF0B3EF2AF0B9EF2AF0010E80
:105568009B6F000E9A6FC1EF2AF0020E9B6F000E20
:105578009A6FC1EF2AF0C1EF2AF0000E00016C6F9C
:10558800010E6D6FFB0E6E6FFE0E6F6F9AC170F09D
:105598009BC171F099EC0EF09A0E0001D96F010EC3
:1055A800DA6F000EDB6F000EDC6F9CEC1FF0120050
:1055B8000001696949A4E3EF2AF0E5EF2AF0EBEF6F
:1055C8002AF01DEC2CF00001696FFAEF2AF049A6C9
:1055D800F0EF2AF0F2EF2AF0FAEF2AF08DEC2DF036
:1055E8000001696FFAEF2AF0FAEF2AF06929D8A4C6
:1055F80000EF2BF002EF2BF008EF2BF0E8EC32F085
:105608000001696F08EF2BF06929D8B40EEF2BF071
:1056180010EF2BF083EF2BF069510D0D0C0EF326D4
:10562800000EF422380EF324D96E020EF420DA6E3E
:1056380049C0DFFF49A423EF2BF025EF2BF05EEFE5
:105648002BF0000E686F070E68652DEF2BF02FEF1B
:105658002BF033EF2BF05EEF2BF05EEF2BF0685161
:10566800010D300EF324D96E020EF420DA6E685163
:10567800010D040EF326000EF422380E666F020E9A
:10568800676FF3506627F450672369510D0DF35087
:105698006625E16EF4506721E26EDFCFE7FF682BE5
:1056A800070E68655AEF2BF05CEF2BF033EF2BF009
:1056B8005EEF2BF049A663EF2BF065EF2BF075EF4B
:1056C8002BF069510D0D020EF326000EF422380E50
:1056D800F324D96E020EF420DA6E59C0DEFF5AC0E8
:1056E800DDFF69510D0D380EF324D96E020EF4203A
:1056F800DA6EF7C1DEFFF8C1DDFF83EF2BF06951E9
:1057080086EF2BF012005250505CD8A08EEF2BF091
:1057180090EF2BF09DEF2BF051504F5CD8B097EFE6
:105728002BF099EF2BF01CEF2CF09DEF2BF09DEF59
:105738002BF071B0A2EF2BF0A4EF2BF09DEF2BF024
:10574800A6EF2BF05250505CD8B0ADEF2BF0AFEF76
:105758002BF0D6EF2BF05050010DA60EF324D96E86
:10576800010EF420DA6EDF50756E502A5250501830
:10577800D8A4C1EF2BF0C3EF2BF01CEF2CF0515045
:10578800D8A4C9EF2BF0CBEF2BF01CEF2CF07184D1
:10579800010E0E6E2C0E0D6E78EC2FF01CEF2CF017
:1057A8001CEF2CF051504F5CD8B0DDEF2BF0DFEF41
:1057B8002BF01CEF2CF04F50010D930EF324D96EF3
:1057C800020EF420DA6EDF50D8A4EDEF2BF0EFEFE5
:1057D8002BF0F9EF2BF04F50010D930EF324D96EF7
:1057E800020EF420DA6E200EDF6E4F50010D930E7C
:1057F800F324D96E020EF420DA6EDF50756E4F2A4C
:1058080051504F18D8A40BEF2CF00DEF2CF01CEFD3
:105818002CF07184010E0E6E2C0E0D6E78EC2FF0AC
:105828001CEF2CF01CEF2CF01CEF2CF01CEF2CF0D4
:105838001200000E0001656F060E656526EF2CF05C
:1058480028EF2CF02CEF2CF0ADEF2CF0ADEF2CF076
:1058580065510D0D0C0EF326000EF422380EF324BC
:10586800D96E020EF420DA6E0201DFAE3EEF2CF0A4
:1058780040EF2CF0A1EF2CF0000165510D0D0C0E3E
:10588800F326000EF422380EF324D96E020EF4200B
:10589800DA6E0201DFA453EF2CF055EF2CF0A1EFE4
:1058A8002CF0000E0001646F070E64655EEF2CF0AB
:1058B80060EF2CF064EF2CF09AEF2CF09AEF2CF0BC
:1058C8006451010D300EF324D96E020EF420DA6E05
:1058D8006451010D040EF326000EF422380E616F98
:1058E800020E626FF3506127F450622365510D0D6B
:1058F800F3506125E16EF4506221E26EDE50E61845
:10590800D8B489EF2CF08BEF2CF08FEF2CF0A1EFAF
:105918002CF0A1EF2CF0642B070E646596EF2CF0A9
:1059280098EF2CF064EF2CF09AEF2CF06551B0EF63
:105938002CF0B0EF2CF0A1EF2CF00001652B060E37
:105948006565A9EF2CF0ABEF2CF02CEF2CF0ADEF48
:105958002CF0FF0EB0EF2CF01200000E81B4010EF7
:105968000101C26FC251D8A4BCEF2CF0BEEF2CF0DD
:10597800E7EF2CF0C151D8B4C4EF2CF0C6EF2CF0EF
:10598800E7EF2CF0BABFD4EF2CF0BA5107E1630E61
:10599800B95DD8B0D2EF2CF0D4EF2CF0E7EF2CF0B3
:1059A800B94BBA2BCE0E0001F86F020EF96FB9C1D0
:1059B800FAF0BAC1FBF0000EFD6F020EFC6F2EEC80
:1059C8002AF0E7EF2CF0C2C1C1F1000E81B0010E40
:1059D8000101C06FC051D8A4F4EF2CF0F6EF2CF001
:1059E8001FEF2DF0BF51D8B4FCEF2CF0FEEF2CF0D8
:1059F8001FEF2DF0BCBF0CEF2DF0BC5107E1630E7B
:105A0800BB5DD8B00AEF2DF00CEF2DF01FEF2DF095
:105A1800BB4BBC2BCE0E0001F86F020EF96FBBC159
:105A2800FAF0BCC1FBF0000EFD6F000EFC6F2EEC0F
:105A38002AF01FEF2DF0C0C1BFF11200000E3A6E20
:105A48003A500001A119FC0BA1193A6E9F51A011FF
:105A5800D8A431EF2DF033EF2DF036EF2DF03A8446
:105A680036EF2DF03AA43BEF2DF03FEF2DF0A36B6E
:105A7800A32B41EF2DF00001A36BA33BA3473A50A2
:105A8800A319DF0BA3193A6E3A8E9FC03BF0A0C052
:105A98003CF0A2A752EF2DF054EF2DF058EF2DF067
:105AA800010E3D6E5CEF2DF0000E3D6E5CEF2DF0AB
:105AB800A2A561EF2DF063EF2DF067EF2DF0010E39
:105AC8003E6E6BEF2DF0000E3E6E6BEF2DF09DC01D
:105AD800D9FF9EC0DAFFDF503F6E20EE01F09D51E6
